:020000040800F2
:10000000F006002081340008AD010008AF010008AF
:10001000B3010008B7010008BB01000800000000A0
:10002000000000000000000000000000BF01000808
:10003000C101000800000000C3010008C50100085C
:100040009B3400089B3400089B3400089B34000854
:100050009B3400089B3400089B3400089B34000844
:100060009B3400089B3400089B3400089B34000834
:100070009B3400089B3400089B3400089B34000824
:100080009B3400089B3400089B3400089B34000814
:100090009B3400089B3400089B3400089B34000804
:1000A0009B3400089B3400089B3400089B340008F4
:1000B0009B3400084F3400089B3400089B34000830
:1000C0009B3400089B3400089B3400089B340008D4
:1000D0009B3400086B3300089B3400089B340008F5
:1000E0009B3400089B3400089B34000800F002F8A1
:1000F00000F03FF80AA090E8000C82448344AAF183
:100100000107DA4501D100F034F8AFF2090EBAE880
:100110000F0013F0010F18BFFB1A43F0010318473B
:10012000F865000018660000103A24BF78C878C14E
:10013000FAD8520724BF30C830C144BF04680C60ED
:10014000704700000023002400250026103A28BF35
:1001500078C1FBD8520728BF30C148BF0B60704739
:10016000782904F0EF86002070471FB51FBD10B539
:1001700010BD04F09FFF1146FFF7F7FF00F008F8ED
:1001800004F0BDFF03B4FFF7F2FF03BC03F092F8E5
:1001900000F09FFB07E00B2002F0D8FE0249086048
:1001A0000A2003F04BF8F6E714000020704700BF68
:1001B000FEE700BFFEE700BFFEE700BFFEE77047B7
:1001C00070477047704700000CB500200190009008
:1001D0006C48006840F480306A49086000BF694894
:1001E000006800F4003000900198401C01900098D5
:1001F00018B90198B0F5A06FF1D16248006800F419
:10020000003010B10120009001E000200090009823
:10021000012843D15C48006840F010005A4908604A
:100220000846006820F0030008600846006840F0B7
:1002300002000860534840685249486008464068D8
:1002400048600846406840F480604860084640685E
:1002500020F47C1048600846406840F4E81048608C
:100260000846006840F08070086000BF454800689C
:1002700000F000700028F9D04248406820F00300E8
:10028000404948600846406840F00200486000BFAE
:100290003C48406800F00C000828F9D10CBD10B5AE
:1002A000FFF792FF10BD10B53648006840F001001E
:1002B000344908600846406834490840314948607C
:1002C00008460068324908402E4908600846006820
:1002D00020F4802008600846406820F4FE00486052
:1002E0004FF41F008860FFF7DAFF4FF000602949E4
:1002F000086010BD10B5002100200022214B5B6872
:1003000003F00C0121B1042906D0082928D107E007
:10031000214B224C236027E01F4B204C236023E01D
:10032000184B5B6803F47010164B5B6803F4803263
:10033000022303EB904022B9194B4343174C23602F
:100340000DE0104B5B6803F4003323B1144B4343BF
:10035000124C236003E0104B4343104C236003E036
:100360000D4B0E4C236000BF00BF064B5B68C3F310
:1003700003130C4CE15C094B1B68CB40074C23601A
:1003800010BD000000100240002002400000FFF8F5
:10039000FFFFF6FE08ED00E000127A0000000020EA
:1003A00000093D000400002010B54FF47840F349E7
:1003B0000880F3A246213C2002F0A2FCF3A25A21BD
:1003C0003C2002F09DFCF6A26E213C2002F098FC3D
:1003D0001F20EA490880F5A282213C2002F090FC0F
:1003E000F6A296213C2002F08BFCF8A2AA213C2028
:1003F00002F086FCF7A2BE213C2002F081FCF8A2AC
:10040000D2213C2002F07CFCECA2E6213C2002F050
:1004100077FCF5A2FA213C2002F072FCE7A24FF42F
:1004200087713C2002F06CFC10BD2DE9F04FEBB061
:100430000025EF480078002871D0ED480078112899
:100440006ED2DFE800F06D09131D27313B454F598F
:10045000636E7476B7FEFD0004EB8400E44909780E
:1004600001EB400084B2E248067812E204EB84001B
:10047000DF49097801EB400084B2DD48067808E2E4
:1004800004EB8400DA49097801EB400084B2D848D3
:100490000678FEE104EB8400D549097801EB4000C1
:1004A00084B2D3480678F4E104EB8400D04909789B
:1004B00001EB400084B2CE480678EAE104EB840008
:1004C000CB49097801EB400084B2C9480678E0E1E5
:1004D00004EB8400C649097801EB400084B2C448AB
:1004E0000678D6E104EB8400C149097801EB4000AD
:1004F00084B2BF480678CCE104EB8400BC4909789B
:1005000001EB400084B2BA480678C2E104EB8400F3
:100510004FF6FF7101EA4004B5480678B9E1D5E12C
:10052000B6E1A01B0A21B0FBF1F084B2B1E10024D6
:10053000AFE102F069FC0B2002F008FDAD49086054
:100540000846006805F0A4F987B2102003233A4654
:10055000BE2100904C2002F05BFB384605F0D0F93C
:100560000290A4480168029805F00FFB6A90A24926
:100570006A9805F00DFA019005F06EF9029005F009
:10058000A7F96A906A9805F083F902901020012378
:100590000090BE216C20029A02F03AFB97499548E0
:1005A000006805F0C1FA04D295A21E213C2002F099
:1005B000A7FB6EE1002505E0002003A941F8250016
:1005C000681CC5B2642DF7DB0025AA4603A951F8C3
:1005D000250005F05DF91FFA80F803A850F825B052
:1005E000102005234246E62100903C2002F010FB3B
:1005F000404605F085F95946029005F0C6FA834653
:100600008249584605F0C4F9019005F025F9029099
:1006100005F05EF98346584605F03AF9029010203D
:1006200002230090E6216C20029A02F0F1FA504673
:1006300005F02EF91FFA80F9CDF8A4A1102001E0F1
:10064000E6E028E005234A464FF4877100903C20FD
:1006500002F0DEFA484605F053F90290699905F078
:1006600094FA69906949699805F092F9019005F04A
:10067000F3F8029005F02CF96990699805F008F9F3
:1006800002901020022300904FF487716C20029A90
:1006900002F0BEFAFDE0204605F032F9019055481F
:1006A0000168019805F074F95849029005F012F8B4
:1006B00003A941F825004F48006805F0E9F887B222
:1006C000102003233A46BE2100904C2002F0A0FAED
:1006D000384605F015F9029046480168029805F081
:1006E00054FA6A9044496A9805F052F9019005F06D
:1006F000B3F8029005F0ECF86A906A9805F0C8F833
:100700000290102001230090BE216C20029A02F07A
:100710007FFA03A951F8250005F0BAF81FFA80F80E
:1007200003A850F825B0102005234246E62100908A
:100730003C2002F06DFA404605F0E2F8594602907E
:1007400005F023FA83463149584605F021F9019016
:1007500005F082F8029005F0BBF88346584605F094
:1007600097F80290102002230090E6216C20029A54
:1007700002F04EFA0024681CC5B28AE0180000207E
:1007800057656C636F6D65210000000074656D70C6
:10079000657261747572653A2020202E2043000036
:1007A0004355474057796D616E00000076616C7566
:1007B000655F7065725F673A0000000020202020AE
:1007C000302E30307975616E000000007765696702
:1007D00068743A0020202020302E3067000000008E
:1007E00076616C75653A000073756D3A0000000023
:1007F0003900002014000020000020410000FA43CE
:100800007761726E696E6721000000000000C842C7
:10081000002508E003A850F82510504604F0ECFE2F
:100820008246681CC5B2642DF4DB504605F030F8F2
:100830001FFA80F9CDF8A4A1102005234A464FF4F1
:10084000877100903C2002F0E3F9484605F058F823
:100850000290699905F099F969902D49699805F018
:1008600097F8019004F0F8FF029005F031F86990D4
:10087000699805F00DF802901020022300904FF4C3
:1008800087716C20029A02F0C3F94FF0000A00E071
:1008900000BF00BF642094FBF0F080B2689010208D
:1008A0000523009096213C20689A02F0B1F964205B
:1008B00094FBF0F100FB114080B2679010200223FE
:1008C000009096216C20679A02F0A2F96BB0BDE807
:1008D000F08F10B5FFF7E7FC482002F095FC02F01E
:1008E0003DFA4FF4E13002F0F4FC02F093FB00F02B
:1008F000D5FAFFF759FD4FF47A7002F09FFC02F031
:1009000083FA41F61F41632002F074FD10BD000020
:100910000000C8424FF48071FE4A516149005161A4
:10092000FD490860802151611161890011617047A2
:1009300010B54FF08830F8490C390860091D08607F
:100940000020F54908608815F249086140004861B7
:1009500040204861F148008848F68911884202D158
:10096000022002F087FC4020EA490861EA48001FA3
:10097000006884B2481508614FF03330E6490C39FD
:100980000860091D08604FF6FF70E34908602046C3
:1009900010BD10B504460B462046FFF7BBFF4FF4D1
:1009A0008070DC49086140004861DB4803608020BA
:1009B000486108618000086110BD10B504462046FA
:1009C000FFF7A8FFFFF7B4FF10BD00B5D3480088BC
:1009D00049F24131884203D12C20FFF79BFF02E00E
:1009E0002220FFF797FF00BD4FF48071C94A1161C3
:1009F00049005161C8490860802151611161890035
:100A00001161704730B5014601F01F04C1F3451371
:100A1000CA0AE50205EB43151544A8B230BD2DE91D
:100A2000F04105460E46F02D02DAB6F5A07F02DB56
:100A30000020BDE8F0813146284604F06DFBB74840
:100A4000008849F24131884203D12E20FFF762FF2E
:100A500002E02220FFF75EFF4FF08830AE490C39EC
:100A60000860091D08604FF6FF70AB4908608815E3
:100A7000A849086140004861402048610861486118
:100A8000A648008848F68911884202D1022002F067
:100A9000F1FB40209F4908619F48001F006884B215
:100AA0009E48008849F2413188420DD14020994941
:100AB000486108619848001F00681FFA80F8E7B293
:100AC0004FF6FF7000EA07274FF400709149086164
:100AD0004FF0333090490C390860091D08604FF61B
:100AE000FF708D4908608D48008844F23551884276
:100AF00010D08A480088091F88420BD08748008898
:100B000048F68911884205D0844800884BF2055187
:100B1000884201D120468CE78048008849F2413163
:100B2000884207D1E012C002B91240EA411040EAFF
:100B3000E8207EE72046FFF765FF7AE700B57748B3
:100B4000008849F24131884203D12920FFF7E2FEB3
:100B500004E040F273110720FFF71BFF00BD00B552
:100B60006E48008849F24131884203D12820FFF7BE
:100B7000D1FE03E000210720FFF70BFF00BD70B599
:100B80000546002400266548008849F24131884224
:100B90007ED1082D1CD2DFE805F00406090C0F12E7
:100BA000151800BF14E044F0800411E044F0400444
:100BB0000EE044F0C0040BE044F0200408E044F0F0
:100BC000600405E044F0A00402E044F0E00400BF4B
:100BD00000BF362644F0080421463046FFF7D9FE10
:100BE00004F02000002875D02A20FFF793FE4FF470
:100BF000807048490861400048610020464908600B
:100C00008020444948610861800008614010086103
:100C10004000486100204049086080203D4948610B
:100C200008618000086140100861400048610120AF
:100C300039490860802037494861086180000861AF
:100C400040100861400048613F203349086080201F
:100C5000304948610861800008612B20FFF75AFE87
:100C60004FF480702B4908614000486100202A49F8
:100C700008608020274948610861800008614010B1
:100C8000086140004861002023490860802000E09E
:100C90009AE02049486108618000086140100861BD
:100CA0004000486100201C490860802019494861C3
:100CB0000861800008614010086140004861EF2031
:100CC0001549086080201349486108618000086167
:100CD000ACE0FFE72A20FFF71DFE4FF480700D49BE
:100CE00008614000486100200B49086080200949E4
:100CF0004861086180000861401008614000486157
:100D00000020054908608020024948610861800090
:100D1000086105E0001001400C0C01401C0000209F
:100D200040100861400048610020FE4908608020B2
:100D3000FD49486108618000086140100861400079
:100D40004861EF20F74908608020F7494861086151
:100D5000800008612B20FFF7DDFD4FF48070F24921
:100D60000861400048610020EE4908608020EE499B
:100D700048610861800008614010086140004861D6
:100D80000020E84908608020E74948610861800048
:100D9000086140100861400048610120E149086095
:100DA0008020E149486108618000086140100861C5
:100DB000400048613F20DB4908608020DA494861F3
:100DC00008618000086131E0082D1CD2DFE805F0E1
:100DD00004070A0D0F12151844F0300413E044F014
:100DE000100410E044F020040DE000BF0BE044F0DC
:100DF000380408E044F0280405E044F0180402E058
:100E000044F0080400BF00BFC848008848F68911B4
:100E1000884204D1112646F24000044302E0032632
:100E200044F4805421463046FFF7B3FD70BD70B5E1
:100E300004460D462946204604F06EF9FFF7C5FD2D
:100E40004FF48070B849086140004861B848008894
:100E5000B44908608020B449486108618000086195
:100E600070BD70B5044600250021084604F054F911
:100E7000FFF7ABFD00BF0DE04FF48070AA49086199
:100E800040004861A74804608020486108618000F4
:100E900008616D1CB5F5963FEED370BD08B5012114
:100EA000192002F097FE0121A24802F0A8FC4FF49D
:100EB000F860ADF8000010208DF8030003208DF8D5
:100EC00002006946984802F0C9FB4FF4F861964861
:100ED00002F071FC4FF6FF70ADF8000069469148D2
:100EE0000C3802F0BBFB4FF6FF718E480C3802F055
:100EF00062FC322002F0A2F901210020FFF749FD37
:100F0000322002F09BF90020FFF757FD8749088047
:100F10000846008828B1084600884FF6FF718842CD
:100F20001BD1D320FFF7F6FCFFF702FDFFF700FD12
:100F3000FFF7FEFC00F0BF007C49088008460088EF
:100F40004FF6FF7101EA002078490880FFF7F0FCB6
:100F5000764909880843754908807448018876A055
:100F600003F0B0FF7148008849F2413188427DD1D9
:100F7000CF20FFF7CFFC4FF480706B490861400031
:100F8000486100206749086080206749486108611E
:100F9000800008614010086140004861C12061493B
:100FA0000860802060494861086180000861401045
:100FB00008614000486130205A49086080205A4941
:100FC0004861086180000861ED20FFF7A3FC4FF441
:100FD00080705549086140004861642051490860AB
:100FE0008020514948610861800008614010086113
:100FF0004000486103204B49086080204A4948610D
:1010000008618000086140100861400048611220BA
:1010100044490860802044494861086180000861B3
:10102000401008614000486181203E4908608020EE
:101030003D494861086180000861E820FFF76AFCCB
:101040004FF4807038490861400048618520354977
:1010500008608020344948610861800008614010C0
:1010600008614000486110202E4900E08AE30860D2
:1010700080202D49486108618000086140100861A6
:10108000400048617A20274908608020264948614D
:10109000086180000861CB20FFF73CFC4FF48070B2
:1010A000214908614000486139201E4908608020BC
:1010B0001D494861086180000861401008614000D6
:1010C00048612C2017490860802017494861086151
:1010D000800008614010086140004861002011490B
:1010E0000860802010494861086180000861401054
:1010F00008614000486134200A49086080200A499C
:101100004861086180000861401008614000486142
:10111000022004490860802003494861086180007A
:10112000086111E00C0C0140001001401C0000207F
:101130001800002000023000204C43442049443A6B
:1011400025780D0A00000000F720FFF7E3FB4FF4BD
:101150008070FE490861400048612020FC49086019
:101160008020FA494861086180000861EA20FFF7A1
:10117000D1FB4FF48070F5490861400048610020C0
:10118000F34908608020F1494861086180000861E6
:1011900040100861400048610020ED49086080204F
:1011A000EA494861086180000861C020FFF7B2FB8E
:1011B0004FF48070E5490861400048611B20E44914
:1011C00008608020E1494861086180000861C12011
:1011D000FFF7A0FB4FF48070DC49086140004861D4
:1011E0000120DB4908608020D849486108618000FF
:1011F0000861C520FFF78EFB4FF48070D34908616A
:10120000400048613020D24908608020CF494861C1
:10121000086180000861401008614000486130208A
:10122000CB4908608020C949486108618000086195
:10123000C720FFF76FFB4FF48070C449086140007E
:101240004861B720C24908608020C04948610861F0
:10125000800008613620FFF75DFB4FF48070BB49CA
:101260000861400048614820B94908608020B749BA
:1012700048610861800008613A20FFF74BFB4FF49A
:101280008070B2490861400048615520B04908604B
:101290008020AE494861086180000861B120FFF7F5
:1012A00039FB4FF48070A949086140004861002073
:1012B000A74908608020A54948610861800008614D
:1012C00040100861400048611A20A1490860802050
:1012D0009E494861086180000861B620FFF71AFB4B
:1012E0004FF4807099490861400048610A2098498C
:1012F00008608020954948610861800008614010BD
:10130000086140004861A2209149086080208F490F
:101310004861086180000861F220FFF7FBFA4FF492
:1013200080708A490861400048610020884908604F
:101330008020864948610861800008612620FFF707
:10134000E9FA4FF48070814908614000486101204A
:101350007F49086080207D494861086180000861FC
:10136000E020FFF7D7FA4FF4807078490861400019
:1013700048610F20764908608020744948610861FF
:101380008000086140100861400048612A207049CF
:10139000086080206D494861086180000861401044
:1013A0000861400048612820694908608020674939
:1013B0004861086180000861401008614000486190
:1013C0000820634908608020604948610861800006
:1013D000086140100861400048610E205C490860C7
:1013E00080205A4948610861800008614010086106
:1013F00040004861082056490860802053494861F0
:101400000861800008614010086140004861542074
:101410004F49086080204D4948610861800008619B
:101420004010086140004861A920494908608020B7
:101430004649486108618000086140100861400029
:101440004861432042490860802040494861086162
:101450008000086140100861400048610A203C4952
:1014600008608020394948610861800008614010A7
:101470000861400048610F203549086080203349E9
:1014800048610861800008614010086140004861BF
:1014900000202F49086080202C49486108618000A5
:1014A0000861401008614000486100202849086038
:1014B0008020264948610861800008614010086169
:1014C0004000486100202249086080201F4948618F
:1014D00008618000086140100861400048610020F8
:1014E0001B49086080201949486108618000086133
:1014F000E120FFF70FFA4FF48070144908614000B3
:101500004861002012490860802010494861086144
:1015100080000861401008614000486115200C49B6
:101520000860802009494861086180000861401016
:101530000861400048611720054908608020034980
:101540004861086180000861401003E0001001401C
:101550000C0C01400861400048610720F849086010
:101560008020F849486108618000086140100861E6
:10157000400048611120F24908608020F14948612B
:101580000861800008614010086140004861062041
:10159000EB4908608020EB494861086180000861E0
:1015A00040100861400048612B20E5490860802018
:1015B000E44948610861800008614010086140000A
:1015C00048615620DE4908608020DE494861086194
:1015D0008000086140100861400048613C20D84903
:1015E00008608020D7494861086180000861401088
:1015F0000861400048610520D14908608020D14938
:10160000486108618000086140100861400048613D
:101610001020CB4908608020CA49486108618000D9
:10162000086140100861400048610F20C44908600B
:101630008020C44948610861800008614010086149
:10164000400048613F20BE4908608020BD49486194
:1016500008618000086140100861400048613F2037
:10166000B74908608020B749486108618000086177
:1016700040100861400048610F20B1490860802097
:10168000B04948610861800008612B20FFF742F9EA
:101690004FF48070AB490861400048610020A849C0
:1016A00008608020A74948610861800008614010F7
:1016B0000861400048610020A14908608020A149DC
:1016C000486108618000086140100861400048617D
:1016D00001209B49086080209A4948610861800088
:1016E000086140100861400048613F20944908604B
:1016F0008020944948610861800008612A20FFF732
:1017000009F94FF480708F4908614000486100205A
:101710008B49086080208B4948610861800008611E
:101720004010086140004861002085490860802021
:1017300084494861086180000861401008614000E8
:10174000486100207E49086080207E494861086128
:10175000800008614010086140004861EF2078492E
:101760000860802077494861086180000861112085
:10177000FFF7D0F8782001F061FD2920FFF7CAF8C3
:1017800001F094B87048008849F2253188427DD133
:1017900047F6F001E520FFF7FCF84FF480710120D7
:1017A000FFF7F7F84FF4E0610220FFF7F2F841F29B
:1017B00030010320FFF7EDF800210420FFF7E9F8DE
:1017C00040F202210820FFF7E4F800210920FFF78A
:1017D000E0F800210A20FFF7DCF800210C20FFF7D9
:1017E000D8F800210D20FFF7D4F800210F20FFF7D3
:1017F000D0F800211020FFF7CCF807211120FFF7C7
:10180000C8F800211220FFF7C4F800211320FFF7C9
:10181000C0F800210720FFF7BCF841F290611020CA
:10182000FFF7B7F840F227211120FFF7B2F89D210A
:101830001220FFF7AEF84FF4C8511320FFF7A9F8B4
:1018400025212920FFF7A5F80D212B20FFF7A1F86E
:1018500007213020FFF79DF840F203313120FFF7D8
:1018600098F803213220FFF794F840F20621352042
:10187000FFF78FF808213620FFF78BF840F206417A
:101880003720FFF786F84FF4417100E05EE0382022
:10189000FFF77FF807213920FFF77BF840F202615C
:1018A0003C20FFF776F808213D20FFF772F8002171
:1018B0005020FFF76EF8EF215120FFF76AF8002162
:1018C0005220FFF766F840F23F115320FFF761F80E
:1018D0004FF427416020FFF75CF801216120FFF7FA
:1018E00058F800216A20FFF754F800218020FFF704
:1018F00050F800218120FFF74CF800218220FFF7EB
:1019000048F800218320FFF744F800218420FFF7E6
:1019100040F800218520FFF73CF810219020FFF7C8
:1019200038F84FF4C0619220FFF733F840F23311DA
:101930000720FFF72EF822210020FFF72AF81FE7E3
:101940000C0C0140001001401C000020FE480088E3
:1019500049F2283188427DD11021E720FFF719F89C
:1019600001210020FFF715F84FF480710120FFF7E7
:1019700010F84FF4E0610220FFF70BF841F230015C
:101980000320FFF706F800210420FFF702F840F2D9
:1019900007210820FEF7FDFF00210920FEF7F9FFCF
:1019A00000210A20FEF7F5FF01210C20FEF7F1FFD0
:1019B00000210D20FEF7EDFF00210F20FEF7E9FFCB
:1019C00000211020FEF7E5FF07211120FEF7E1FFBF
:1019D00000211220FEF7DDFF00211320FEF7D9FFC2
:1019E000322001F02BFC41F290511020FEF7D1FF84
:1019F00040F227211120FEF7CCFF322001F01EFC1F
:101A00009C211220FEF7C5FF322001F017FC4FF495
:101A1000C8511320FEF7BDFF23212920FEF7B9FF8F
:101A20000E212B20FEF7B5FF322001F007FC00212C
:101A30002020FEF7AEFF40F23F112120FEF7A9FF64
:101A4000322001F0FBFB07213020FEF7A2FF40F21D
:101A5000077100E087E03120FEF79BFF062132206E
:101A6000FEF797FF40F204713520FEF792FF41F632
:101A700004713620FEF78DFF04213720FEF789FF21
:101A800000213820FEF785FF40F206713920FEF76D
:101A900080FF40F201713C20FEF77BFF0F213D20CB
:101AA000FEF777FF322001F0C9FB00215020FEF73E
:101AB00070FFEF215120FEF76CFF00215220FEF74E
:101AC00068FF40F23F115320FEF763FF4FF42741B8
:101AD0006020FEF75EFF01216120FEF75AFF002122
:101AE0006A20FEF756FF00218020FEF752FF0021FA
:101AF0008120FEF74EFF00218220FEF74AFF0021E1
:101B00008320FEF746FF00218420FEF742FF0021DC
:101B10008520FEF73EFF10219020FEF73AFF0021BE
:101B20009220FEF736FF03219320FEF732FF4FF499
:101B300088719520FEF72DFF00219720FEF729FFE1
:101B400000219820FEF725FF40F233110720FEF711
:101B500020FF00212020FEF71CFF40F23F11212032
:101B6000FEF717FF0CE67848008849F220318842DA
:101B700004D075480088B0F5134F7DD10021084688
:101B8000FEF707FF4FF480710120FEF702FF4FF4CC
:101B9000E0610220FEF7FDFE41F230010320FEF776
:101BA000F8FE00210420FEF7F4FE40F20221082096
:101BB000FEF7EFFE00210920FEF7EBFE00210A20D0
:101BC000FEF7E7FE01210C20FEF7E3FE00210D20C9
:101BD000FEF7DFFE00210F20FEF7DBFE322001F0D2
:101BE0002DFB40F201110720FEF7D3FE322001F059
:101BF00025FB4FF486511020FEF7CBFE0721112064
:101C0000FEF7C7FE4FF488711220FEF7C2FE4FF4B4
:101C100030611320FEF7BDFE00212920FEF7B9FE3A
:101C200044F210012B20FEF7B4FE00215020FEF7F5
:101C3000B0FEEF215120FEF7ACFE00215220FEF74E
:101C4000A8FE40F23F115320FEF7A3FE4FF41C51B3
:101C50006020FEF79EFE01216120FEF79AFE002122
:101C60006A20FEF796FE00218020FEF792FE0021FA
:101C70008120FEF78EFE00E02EE000218220FEF79C
:101C800088FE00218320FEF784FE00218420FEF7D9
:101C900080FE00218520FEF77CFE10219020FEF7BB
:101CA00078FE00219220FEF774FE01219320FEF7BA
:101CB00070FE4FF488719520FEF76BFE002197208F
:101CC000FEF767FE00219820FEF763FE40F27311D5
:101CD0000720FEF75EFE53E51B48008845F20841E9
:101CE00088427DD14FF480710120FEF752FE4FF4FF
:101CF000E0610220FEF74DFE41F230010320FEF7C5
:101D000048FE00210420FEF744FE40F2072108208F
:101D1000FEF73FFE00210920FEF73BFE00210A20CE
:101D2000FEF737FE00210C20FEF733FE00210D20C8
:101D3000FEF72FFE00210F20FEF72BFE142001F0EE
:101D40007DFA41F2B06101E01C0000201020FEF796
:101D500020FE01211120FEF71CFE01211720FEF7B5
:101D600018FE4FF49C711220FEF713FE4FF4006131
:101D70001320FEF70EFE09212920FEF70AFE092195
:101D80002A20FEF706FE0021A420FEF702FE002115
:101D90005020FEF7FEFDEF215120FEF7FAFD002155
:101DA0005220FEF7F6FD40F23F115320FEF7F1FD01
:101DB0004FF41C516020FEF7ECFD01216120FEF77D
:101DC000E8FD00216A20FEF7E4FD00218020FEF7F7
:101DD000E0FD00218120FEF7DCFD0021822000E0F3
:101DE00027E0FEF7D6FD00218320FEF7D2FD00217B
:101DF0008420FEF7CEFD00218520FEF7CAFD1321C9
:101E00009020FEF7C6FD00219220FEF7C2FD0321BF
:101E10009320FEF7BEFD4FF488719520FEF7B9FDC3
:101E200040F273110720FEF7B4FD322001F006FAEC
:101E3000A6E4FE48008841F2055188427ED1002187
:101E40000720FEF7A6FD322001F0F8F94FF48E715D
:101E50001220FEF79EFD0121A420FEF79AFD0F211E
:101E60000820FEF796FD08210A20FEF792FD0821C2
:101E70000D20FEF78EFD40F207713020FEF789FD40
:101E800007213120FEF785FD40F203613220FEF785
:101E900080FD4FF4E0613320FEF77BFD40F202212C
:101EA0003420FEF776FD02213520FEF772FD41F663
:101EB0000F713620FEF76DFD40F207713720FEF7F7
:101EC00068FD00213820FEF764FD00213920FEF76F
:101ED00060FD40F207713A20FEF75BFD00213B20D8
:101EE000FEF757FD07213C20FEF753FD00213D2062
:101EF000FEF74FFD322001F0A1F901210720FEF786
:101F000048FD01211720FEF744FD322001F096F92B
:101F10004FF4BD511020FEF73CFD40F21721112077
:101F2000FEF737FD4FF48F711220FEF732FD4FF4AC
:101F300070611320FEF72DFD002100E094E02A20BF
:101F4000FEF727FD0A212920FEF723FD4FF49F719C
:101F50001220FEF71EFD00215020FEF71AFDEF2192
:101F60005120FEF716FD00215220FEF712FD40F22F
:101F70003F115320FEF70DFD4FF41C516020FEF77A
:101F800008FD01216120FEF704FD00216A20FEF713
:101F900000FD00218020FEF7FCFC00218120FEF7DF
:101FA000F8FC00218220FEF7F4FC00218320FEF7DC
:101FB000F0FC00218420FEF7ECFC00218520FEF7D8
:101FC000E8FC13219020FEF7E4FC4FF440719220CE
:101FD000FEF7DFFC05219320FEF7DBFC00219520B6
:101FE000FEF7D7FC00219720FEF7D3FC00219820B4
:101FF000FEF7CFFC4FF480710120FEF7CAFC4FF4CE
:10200000E0610220FEF7C5FC41F230010320FEF73B
:10201000C0FC00210420FEF7BCFC00210C20FEF7D0
:10202000B8FC00210F20FEF7B4FC00212020FEF7B1
:10203000B0FC00212120FEF7ACFC21210720FEF797
:10204000A8FC142001F0FAF861210720FEF7A1FC9A
:10205000142001F0F3F840F273110720FEF799FC09
:10206000142001F0EBF86AE4704800884BF2055147
:1020700088427CD100210846FEF78BFC00210846EF
:10208000FEF787FC00210846FEF783FC0021084686
:10209000FEF77FFC0121A420FEF77BFC142001F059
:1020A000CDF84FF41C516020FEF773FC40F2022182
:1020B0000820FEF76EFC4FF405713020FEF769FC36
:1020C00043F215713120FEF764FC40F204613220C6
:1020D000FEF75FFC40F616613320FEF75AFC42F231
:1020E00011213420FEF755FC4FF4A8513520FEF79E
:1020F00050FC48F207513620FEF74BFC41F20741F5
:102100003720FEF746FC41F203413820FEF741FC40
:1021100020213920FEF73DFC1A219020FEF739FCE2
:1021200000211020FEF735FC07211120FEF731FCBD
:1021300000211220FEF72DFC00211320FEF729FCC0
:10214000142001F07BF84FF4E6611020FEF721FC2B
:1021500040F237111120FEF71CFC142001F06EF83C
:102160004FF4DC711220FEF714FC142000E088E02C
:1021700001F064F84FF470611320FEF70AFC80212F
:102180002A20FEF706FC48212920FEF702FC142035
:1021900001F054F84FF480710120FEF7FAFB4FF480
:1021A000E0610220FEF7F5FB41F230210320FEF74B
:1021B000F0FB40F202210820FEF7EBFB00210A2091
:1021C000FEF7E7FB00210C20FEF7E3FB00210D20CA
:1021D000FEF7DFFB30210E20FEF7DBFB0021502055
:1021E000FEF7D7FBEF215120FEF7D3FB0021522051
:1021F000FEF7CFFB40F23F115320FEF7CAFB4FF42E
:102200001C516020FEF7C5FB01216120FEF7C1FBD8
:1022100000216A20FEF7BDFB11219020FEF7B9FBDB
:102220004FF4C0619220FEF7B4FB01E01C000020D7
:1022300040F202419320FEF7ACFB02219420FEF70E
:10224000A8FB142000F0FAFF01210720FEF7A1FBF4
:10225000142000F0F3FF61210720FEF79AFB40F203
:1022600073110720FEF795FB00212020FEF791FB5C
:1022700000212120FEF78DFB22210020FEF789FBA3
:1022800014E3FE4800884CF2055188427ED10021BB
:102290000846FEF77EFB00210846FEF77AFB142075
:1022A00000F0CCFF00210846FEF773FB0021084632
:1022B000FEF76FFB00210846FEF76BFB0021084686
:1022C000FEF767FB0121A420FEF763FB142000F05A
:1022D000B5FF4FF41C516020FEF75BFB40F6060192
:1022E0000820FEF756FB40F203713020FEF751FB49
:1022F00001213120FEF74DFB04213220FEF749FB7E
:102300004FF481713320FEF744FB4FF440713420C9
:10231000FEF73FFB40F203113520FEF73AFB1F2189
:102320003620FEF736FB40F203713720FEF731FB13
:1023300001213820FEF72DFB04213920FEF729FB6F
:1023400015219020FEF725FB4FF482611020FEF747
:1023500020FB40F247211120FEF71BFB4FF4DE71FA
:102360001220FEF716FB4FF460611320FEF711FBFD
:10237000782000F063FF4FF480710120FEF709FB25
:102380004FF400710220FEF704FB00E050E041F240
:1023900030010320FEF7FDFA08210A20FEF7F9FAC2
:1023A00000210C20FEF7F5FA20210E20FEF7F1FAAD
:1023B00000210F20FEF7EDFA00212020FEF7E9FAB8
:1023C00000212120FEF7E5FA3D212A20FEF7E1FA5F
:1023D000142000F033FF2D212920FEF7DAFA002126
:1023E0005020FEF7D6FA4DF2EF015120FEF7D1FA58
:1023F00000215220FEF7CDFA40F23F115320FEF7A4
:10240000C8FA00216120FEF7C4FA00216A20FEF715
:10241000C0FA4FF440719220FEF7BBFA05219320D9
:10242000FEF7B7FA4FF480710720FEF7B2FA3DE2EB
:102430009248008848F6891188427DD10121002008
:10244000FEF7A7FA4AF6A4010320FEF7A2FA00213C
:102450000C20FEF79EFA40F60C010D20FEF799FACB
:102460004FF42C510E20FEF794FAB0211E20FEF7F7
:1024700090FA42F63F310120FEF78BFA4FF4C0612B
:102480000220FEF786FA00211020FEF782FA46F2BB
:1024900070011120FEF77DFA00210520FEF779FA80
:1024A00000210620FEF775FA4EF61C711620FEF785
:1024B00070FA03211720FEF76CFA40F2332107204F
:1024C000FEF767FA00210B20FEF763FA00210F20C8
:1024D000FEF75FFA00214120FEF75BFA002142205F
:1024E000FEF757FA00214820FEF753FA40F23F1159
:1024F0004920FEF74EFA00214A20FEF74AFA002151
:102500004B20FEF746FA4FF46F414420FEF741FAA4
:1025100000214520FEF73DFA40F23F114620FEF72C
:1025200038FA40F207713020FEF733FA4FF40171A8
:102530003120FEF72EFA00E03DE04FF40171322029
:10254000FEF727FA40F202513320FEF722FA40F25A
:1025500007513420FEF71DFA4FF401713520FEF7C4
:1025600018FA4FF401713620FEF713FA40F20251C7
:102570003720FEF70EFA40F202313A20FEF709FA50
:1025800040F202313B20FEF704FA00212320FEF73F
:1025900000FA00212420FEF7FCF94FF40041252029
:1025A000FEF7F7F900214F20FEF7F3F900214E2046
:1025B000FEF7EFF97AE13148008844F23151884260
:1025C0007DD101210020FEF7E4F90A2000F036FE5B
:1025D00041F228611020FEF7DCF90E211220FEF7EF
:1025E000D8F940F639211320FEF7D3F90A2000F07C
:1025F00025FE40211120FEF7CCF950211520FEF7D1
:10260000C8F90A2000F01AFE1E211220FEF7C1F9B7
:102610000A2000F013FE4FF4B1511020FEF7B9F973
:1026200042F639211320FEF7B4F90A2000F006FE25
:102630004FF480710120FEF7ACF94FF44071022095
:10264000FEF7A7F941F230010320FEF7A2F940F2AC
:1026500002210820FEF79DF908210A20FEF799F9CA
:1026600000213020FEF795F940F202413120FEF7BB
:1026700090F94FF48371322002E000001C0000202A
:10268000FEF787F940F203513320FEF782F94FF449
:1026900082713420FEF77DF940F201313520FEF7DA
:1026A00078F940F207713620FEF773F940F20531F0
:1026B0003720FEF76EF94FF40271382000E040E059
:1026C000FEF767F940F60B713920FEF762F9022137
:1026D0004120FEF75EF94FF41C516020FEF759F9D6
:1026E00001216120FEF755F94FF404719020FEF7A7
:1026F00050F94FF485719220FEF74BF90421932095
:10270000FEF747F94FF48071A020FEF742F901214E
:102710000720FEF73EF921210720FEF73AF9232191
:102720000720FEF736F933210720FEF732F940F291
:1027300033110720FEF72DF90021A020FEF729F91B
:10274000B4E0FA48008844F235518842F8D130218B
:102750001520FEF71EF910219A20FEF71AF9202104
:102760001120FEF716F943F228411020FEF711F967
:1027700002211220FEF70DF941F238011320FEF775
:1027800008F9282000F05AFD12210846FEF701F949
:10279000282000F053FD43F220411020FEF7F9F805
:1027A00043F238011320FEF7F4F8462000F046FD0E
:1027B00000213020FEF7EDF840F202413120FEF713
:1027C000E8F840F207313220FEF7E3F84FF44171A8
:1027D0003320FEF7DEF804213420FEF7DAF840F269
:1027E00001413520FEF7D5F840F207713620FEF79B
:1027F000D0F840F205313720FEF7CBF84FF4C26134
:102800003820FEF7C6F84FF4C2613920FEF7C1F850
:102810004FF480710120FEF7BCF84FF440710220A4
:10282000FEF7B7F841F230010320FEF7B2F840F6A8
:1028300008010820FEF7ADF808210A20FEF7A9F8E4
:102840004FF41C516020FEF7A4F801216120FEF72F
:10285000A0F84FF49F719020FEF79BF84FF4807121
:102860009220FEF796F84FF480719320FEF791F8CE
:102870004FF44051A020FEF78CF81021A320FEF762
:1028800088F801210720FEF784F821210720FEF7B0
:1028900080F823210720FEF77CF833210720FEF77C
:1028A00078F840F233110720FEF773F80020FEF7A6
:1028B00066F901209E4908604FF6FF70FEF7D1FAD5
:1028C00008BD2DE9F05F05460E4617469846DDF82F
:1028D00028A04FF0000B0020FEF751F9781B401C98
:1028E0001FFA80FB34461EE02146284602F014FC05
:1028F000FEF76BF84FF0000911E04FF480708D493E
:102900000861400048618C48C0F800A08020486100
:1029100008618000086109F101001FFA80F9D945BA
:10292000EBDB601C84B24445DEDD0020FEF727F9B6
:10293000BDE8F09F2DE9FF4F85B081468A46002013
:10294000049003900798A0EB09050898A0EB0A06ED
:10295000CDF80890CDF804A0002D01DD012705E099
:102960000DB9002702E04FF0FF376D42002E02DD67
:102970004FF0010806E016B94FF0000802E04FF0F2
:10298000FF387642B54201DD2C4600E034464FF078
:10299000000B21E0019A91B2029A90B2FEF747FA39
:1029A0000498284404900398304403900498A0426B
:1029B00005DD0498001B04900298384402900398A7
:1029C000A04205DD0398001B03900198404401904C
:1029D0000BF101001FFA80FB601C8345DADD09B0B2
:1029E000BDE8F08F2DE9F04104460D4616461F461E
:1029F0002B46324629462046FFF79CFF3B4622469F
:102A000029462046FFF796FF3B4632463946204688
:102A1000FFF790FF3B46324629463046FFF78AFFD4
:102A2000BDE8F0812DE9F04706460F4690460024A8
:102A300045460320A0EB480948E03A1B91B2721BBF
:102A400090B2FEF7F4F93A1B91B2721990B2FEF708
:102A5000EEF97A1991B2321B90B2FEF7E8F93A1BFF
:102A600091B2721B90B2FEF7E2F97A1B91B2321B5F
:102A700090B2FEF7DCF93A1991B2721990B2FEF7F2
:102A8000D6F97A1B91B2321990B2FEF7D0F97A19C1
:102A900091B2321990B2FEF7CAF93A1991B2721B8B
:102AA00090B2FEF7C4F9641CB9F1000F03DAA0007C
:102AB000801D814404E0601B80000A3081446D1E4B
:102AC0007A1991B2321990B2FEF7B1F9AC42B4DD85
:102AD000BDE8F0872DE9F84F0746894616461D46A2
:102AE000BB46164800880090E82F02DCB9F59C7FB1
:102AF00001DDBDE8F88FA6F12000C6B20A980028D3
:102B000048D1002443E00C2D07D106EB46000C49C8
:102B100001EB800010F804A004E00A4800EB061066
:102B200010F804A04FF0000825E000001C00002071
:102B3000A8012242001001400C0C014018000020A6
:102B40008A5C0008FE6000080AF0010018B17F49A5
:102B50000098088003E07E4800887C490880494648
:102B60003846FEF764F94FEA6A0A781C87B208F122
:102B7000010000F0FF0805EBD571B8EB610FE3DB56
:102B80005F4609F101001FFA80F9601CC4B2AC4233
:102B9000B9DB2DE0002429E00C2D07D106EB46001F
:102BA0006C4901EB800010F804A004E06A4800EBD7
:102BB000061010F804A04FF0000810E00AF0010021
:102BC00038B109EB040291B207EB080290B2FEF7AC
:102BD0002EF94FEA6A0A08F1010000F0FF0805EB40
:102BE000D571B8EB610FE9DB601CC4B2AC42D3DB3A
:102BF00056490098088000BF7BE710B502460120C7
:102C000000E050430B1EA1F10104E1B2F9D110BD67
:102C10002DE9FF4F81B0074691461E460E9D4FF0AD
:102C2000000A002439E0301B401EC1B20A20FFF721
:102C3000E4FFB9FBF0F00A21B0FBF1F201FB12084E
:102C4000BAF1000F16D1701EA04213DDB8F1000FCB
:102C50000ED10020AB4605EBDB71491001FB04717E
:102C6000009088B22B4620220299FFF733FF12E032
:102C70004FF0010A0020AB4605EBDB71491001FB68
:102C80000471009088B208F13001CAB22B46029953
:102C9000FFF720FF00BF601CC4B2B442C3DB05B025
:102CA000BDE8F08F2DE9FF4F81B0074690461D46E5
:102CB000DDE90E6A00241EE0281B401EC1B20A2076
:102CC000FFF79BFFB8FBF0F00A21B0FBF1F201FB2C
:102CD0001209B34606EBDB71491001FB047188B29F
:102CE00009F13001CAB23346CDF800A00299FFF7CE
:102CF000F1FE601CC4B2AC42DEDB05B0BDE8F08F73
:102D0000F8B505460E4614461BE0E82D03DD002508
:102D100006F1100086B2B6F59C7F06DD0020054660
:102D200006464FF6FF70FEF79CF8002000902278D0
:102D3000102331462846FFF7CDFE05F1080085B285
:102D4000641C20780028E0D1F8BD000018000020A5
:102D50001A0000208A5C0008FE60000808B5012106
:102D6000102000F037FF1020ADF800008DF80300B0
:102D700003208DF802006946964800F06FFC202081
:102D8000ADF8000048208DF803006946914800F036
:102D900065FC10218F4800F00EFD08BD70B50120C4
:102DA0008D49086000F066FA00208C49C1F8900156
:102DB000002400BF884800680028FBD1002513E0EC
:102DC000012085497C310860640000F053FA00203E
:102DD0008249C1F890018048006800B1641C01205C
:102DE00000F048FA681CC5B2182DE9DB01207A49C9
:102DF0007C31086084F4000400F03CFA002077493C
:102E0000C1F89001204670BD10B5FFF7C7FF04461A
:102E100002F076FD7249086010BD2DE9F041FFF720
:102E2000BDFF704908600846006802F069FD04466D
:102E30006B480168204602F077FE7DD26948006841
:102E400002F05EFD684908606548016866480068F0
:102E500002F0A6FE6449086064496348006802F015
:102E600063FD0DD86048006802F09AFB0646604A90
:102E7000604B02F0E9F9044602F0B4F95A490860DF
:102E80005A495948006802F04FFE13D25A49564831
:102E9000006802F049FD0DD25348006802F080FB43
:102EA0000646534A554B02F0CFF9044602F09AF910
:102EB0004D49086050494C48006802F035FE13D86F
:102EC0004F494948006802F02FFD0DD84648006878
:102ED00002F066FB0646464A4A4B02F0B5F9044644
:102EE00002F080F94049086045493F48006802F017
:102EF0001BFE13D244493C48006802F015FD0DD278
:102F00003948006802F04CFB0646394A3F4B02F054
:102F10009BF9044602F066F9334908603A493248A1
:102F2000006802F001FE0FD82F48006802F038FB5D
:102F300006462F4A364B00E006E002F085F90446CB
:102F400002F050F928490860BDE8F0812DE9F0430E
:102F50008BB005464FF0010900270AE0FFF75DFF3F
:102F6000214800684DF82700052000F067F9781C1B
:102F7000C7B2AF42F2DB00261EE04FF00009012489
:102F800015E0621C5DF822105DF8240002F0CCFD13
:102F90000BD25DF82480601C5DF820004DF8240001
:102FA000601C4DF820804FF00109601CC4B2A81BC2
:102FB000A042E6DC701CC6B2AE4202DAB9F1000FE4
:102FC000DBD1691E01EBD17040105DF820000BB021
:102FD000BDE8F083001001401401224200002242AB
:102FE0002400002020000020280000200050C347BB
:102FF000CDCCCCCCCCF49840007C9248CC409A40CC
:1030000000BADB48CC74994000E62A49CC9099403C
:10301000CC389A4008B50121042000F0DBFD4FF4C4
:103020002040ADF8000048208DF803006946704844
:1030300000F014FB08BD10B501216E4800F0DFFB65
:103040006D480078F8B16D48006818B16B480830D9
:103050000068C0B90A2000F0F1F800206649087045
:103060006648006828B90121654800F0C8FB0220C5
:1030700010BD62480830006880B90121604800F046
:10308000BEFB0120F4E75D480068012806D15B48DB
:1030900008300068012801D15749087001215848BB
:1030A00000F0ADFB0020E3E708B50121042000F0AB
:1030B00091FD0F20ADF8000048208DF8030069460F
:1030C0004B4800F0CBFAF020ADF8000010208DF84E
:1030D000030003208DF802006946454800F0BEFA5F
:1030E000F021434800F069FB08BD08B50121042028
:1030F00000F070FDF020ADF8000048208DF80300CE
:1031000069463B4800F0AAFA0F20ADF800001020F5
:103110008DF8030003208DF802006946344800F062
:103120009DFA0F21324800F048FB08BD70B500241D
:103130000025FFF7B9FF2E4800F02CFB044604F0F1
:103140000F0430480078E8B10E2C05D00D2C03D0C8
:103150000B2C01D0072C15D10A2000F06FF80020AD
:10316000284908700E2C01D1012511E00D2C01D148
:1031700002250DE00B2C01D1032509E0072C07D116
:10318000042505E000250F2C02D101201D490870FF
:10319000FFF7ABFF164800F0FDFA044604F0F00418
:1031A000E02C06D12DB1681E012101EB8000C5B2D3
:1031B0001BE0D02C06D12DB1681E022101EB80004E
:1031C000C5B212E0B02C06D12DB1681E032101EB6F
:1031D0008000C5B209E0702C06D12DB1681E042113
:1031E00001EB8000C5B200E00025284670BD00005C
:1031F00000080140000430002D000020340121426D
:10320000000230002E00002010B504466FF00400CC
:1032100000F0A5F9E11704EB5171C1F3C701234A8E
:1032200011701046007800EB4001C1EBC0104FF662
:10323000FF7101EAC0001E49088010BD01461C4A0A
:1032400012884A434FF0E0235A6100229A6101221A
:103250001A6100BF4FF0E022106900F001021AB1BC
:1032600000F48032002AF5D000224FF0E0231A61EA
:103270009A61704701460D4A12784A434FF0E023A5
:103280005A6100229A6101221A6100BF4FF0E022C8
:10329000106900F001021AB100F48032002AF5D062
:1032A00000224FF0E0231A619A617047300000203D
:1032B00032000020014600BF704700BF494A128813
:1032C00002F04002002AF9D0C2B2464B1B1D1A8000
:1032D000704710B586B00446012144F2050000F0A5
:1032E00079FC4FF40070ADF8140003208DF816003F
:1032F00018208DF8170005A93B4800F0AFF94FF4EE
:103300008060ADF8140004208DF8170005A9364838
:1033100000F0A4F925208DF8000003208DF80100AD
:103320008DF8020001208DF80300684600F0CDF80A
:1033300001940020ADF80800ADF80A00ADF80C00CB
:10334000ADF810000C20ADF80E0001A9254801F0E1
:10335000F6FB012240F22551224801F088FC0121B0
:10336000204801F078FC06B010BD10B540F22551A0
:103370001C4801F061FD10B31A4801F0DDFCC4B235
:103380001A48007800F08000C8B91848007800F0AA
:10339000400060B10A2C03D000201449087020E0DE
:1033A0001248007840F080001049087019E00D2C98
:1033B00006D10E48007840F040000C49087010E03B
:1033C0000A48007800F03F0009490C54074800788B
:1033D000401C06490870084600783F2801DD00209F
:1033E000087010BD0038014000080140380000207E
:1033F000500000207FB505460C460121022000F058
:10340000F6FBADF80850ADF804400020ADF80A0016
:10341000ADF8060001A9184800F014FD012211467C
:10342000154801F086F81D208DF8000000208DF869
:10343000010003208DF8020001208DF8030068468A
:1034400000F043F801210C4801F058F87FBD10B599
:103450000121094801F01BFB60B10121064801F080
:1034600027FBFFF7E8FD18B1FFF760FE034908707E
:10347000FCF7DBFF10BD0000000400403900002015
:103480000948804709480047FEE7FEE7FEE7FEE7F8
:10349000FEE7FEE7FEE7FEE7FEE7FEE70448054934
:1034A000054A064B70470000A7020008ED0000081F
:1034B000F0000020F0060020F0020020F0020020C2
:1034C00031490143314A1160704770B50021002332
:1034D0000F22C47804B32D4C246804F4E064C4F5CE
:1034E000E064210AC1F10403CA40447804FA03F1FC
:1034F0008478144021430901254C0678A1550478AD
:1035000004F01F050124AC4005786D11AD0005F1F4
:10351000E025C5F8004109E0047804F01F05012406
:10352000AC401C4D0678761145F8264070BD1A4A0D
:103530000A400243154B1B1F1A60704739B1134AEA
:10354000121D12680243114B1B1D1A6006E00F4A40
:10355000121D126882430D4B1B1D1A607047042810
:1035600008D14FF0E021096941F004014FF0E02259
:10357000116107E04FF0E021096921F004014FF0EB
:10358000E0221161704700000000FA050CED00E038
:1035900000E400E080E100E080FFFF1F10B504467A
:1035A000CC48844208D10121042000F02DFB0021E9
:1035B000042000F029FB46E0C748844208D10121DD
:1035C000082000F021FB0021082000F01DFB3AE05C
:1035D000C248844208D10121102000F015FB0021CF
:1035E000102000F011FB2EE0BD48844208D10121DB
:1035F000202000F009FB0021202000F005FB22E044
:10360000B848844208D10121402000F0FDFA002191
:10361000402000F0F9FA16E0B348844208D10121B5
:10362000802000F0F1FA0021802000F0EDFA0AE09D
:10363000AE48844207D10121801500F0E5FA00214F
:10364000A01500F0E1FA10BD10B50121084600F008
:10365000DBFA0021012000F0D7FA10BD2DE9F0417E
:10366000024600250026002000230024002791F8B0
:1036700003C00CF00F0591F803C00CF0100CBCF166
:10368000000F03D091F802C04CEA050591F800C084
:10369000BCF1000F31D0146800202BE04FF0010C7A
:1036A0000CFA00F3B1F800C00CEA03069E4220D1E8
:1036B00083004FF00F0C0CFA03F7BC4305FA03FC30
:1036C0004CEA040491F803C0BCF1280F06D14FF076
:1036D000010C0CFA00FCC2F814C00AE091F803C017
:1036E000BCF1480F05D14FF0010C0CFA00FCC2F8F8
:1036F00010C0401C0828D1D31460B1F800C0BCF140
:10370000FF0F34DD546800202EE000F1080C4FF06C
:10371000010808FA0CF3B1F800C00CEA03069E4257
:1037200021D183004FF00F0C0CFA03F7BC4305FACC
:1037300003FC4CEA040491F803C0BCF1280F05D146
:1037400000F1080C08FA0CF8C2F8148091F803C0D4
:10375000BCF1480F07D100F1080C4FF0010808FA3E
:103760000CF8C2F81080401C0828CED35460BDE885
:10377000F0814FF6FF710180022181700421C17038
:1037800070470246002093680B400BB1012000E017
:10379000002070470146886880B2704702460020CA
:1037A000D3680B400BB1012000E0002070470146B8
:1037B000C86880B2704701617047416170470AB1C3
:1037C000016100E041617047C16070474FF4803291
:1037D0000A4382618161826182698269704702461F
:1037E0000020434B18684FF68073184040EA0210DF
:1037F00008433F4B186070473E49C8617047F0B5B9
:103800000A46002300240021002500F00046B6F1FE
:10381000004F02D1364EF16901E0354E7168C0F3B8
:10382000034583B200F44016B6F5401F08D121F0DD
:1038300070612F4E766826F070662D4F7E6012E024
:1038400000F48016B6F5801F06D1032606FA05F4AB
:10385000A14341F0706106E0460D360103FA06F619
:10386000B14341F0706122B1460D360103FA06F60C
:10387000314300F00046B6F1004F02D11C4EF16119
:1038800001E01B4E7160F0BD30B500228B071C0FAC
:103890000F2303FA04F2164B08338C1053F824302C
:1038A0009343134C08348D1044F8253023468C1074
:1038B00053F824308C07240F00FA04F423430C4CF3
:1038C00008348D1044F8253030BD0A49DC310860D9
:1038D0007047000000080140000C0140001001404A
:1038E0000014014000180140001C0140002001406C
:1038F0000000014000002042DF48006840F0010065
:10390000DD49086008464068DC490840DA494860FB
:1039100008460068DA490840D74908600846006848
:1039200020F4802008600846406820F4FE004860CB
:103930004FF41F0088607047CF49096821F4803137
:10394000CD4A11601146096821F480211160B0F55B
:10395000803F03D0B0F5802F0ED106E0C64909683C
:1039600041F48031C44A116007E0C349096841F459
:10397000A021C14A116000E000BF00BF704710B530
:1039800001460022002300204A11012A02D1BA4C2C
:10399000236806E0022A02D1B74C236A01E0B64C44
:1039A000636A01F01F02012494401C400CB1012005
:1039B00000E0002010BD38B5002000900024002554
:1039C00000BF3120FFF7DBFF05460098401C009048
:1039D0000098B0F5A06F01D0002DF2D03120FFF794
:1039E000CEFF08B1012400E00024204638BD014686
:1039F0000020A14A106820F0F80040EAC1001060E1
:103A00007047A04908607047024600209A4B5868EA
:103A100020F47C1042EA01031843974B586070472A
:103A200098490866704701460020934A506820F084
:103A300003000843506070478F48406800F00C0056
:103A40007047014600208C4A506820F0F00008437F
:103A50005060704701460020874A506820F4E060BB
:103A600008435060704701460020834A506820F4A4
:103A7000605040EAC1005060704729B17E4A527AD6
:103A800002437D4B5A7204E07B4A527A82437A4B5E
:103A90005A7270477B49D831086070470146002050
:103AA000754A506820F44040084350607047002138
:103AB000714A20321170704A82F82010012802D019
:103AC00004280AD104E001216B4A2032117005E07C
:103AD0000521694A2032117000E000BF00BF704725
:103AE0006949086070476449096A0143624A116282
:103AF0007047654944390860704730B5002100229D
:103B0000002400235C4D6D6805F00C0121B10429EF
:103B100005D0082923D105E05C4D056022E05B4D0E
:103B200005601FE0544D6D6805F47012524D6D68CC
:103B300005F48034022505EB92421CB9544D5543DF
:103B400005600BE04C4D6D6805F400351DB1504D1E
:103B50005543056002E04D4D5543056002E04B4D75
:103B6000056000BF00BF444D6D6805F0F001090914
:103B7000484D6B5C0568DD4045603F4D6D6805F460
:103B8000E061090A434D6B5C4568DD4085603A4D54
:103B90006D6805F46051C90A3E4D6B5C4568DD40B7
:103BA000C560354D6D6805F44041890B3A4D6B5C3D
:103BB000C568B5FBF3F5056130BD29B12E4A5269E0
:103BC00002432D4B5A6104E02B4A526982432A4B2F
:103BD0005A61704729B1284A92690243264B9A617B
:103BE00004E0254A92698243234B9A61704729B1C8
:103BF000214AD2690243204BDA6104E01E4AD269AD
:103C000082431D4BDA61704729B11B4AD2680243D7
:103C1000194BDA6004E0184AD2688243164BDA6026
:103C2000704729B1144A12690243134B1A6104E028
:103C3000114A12698243104B1A6170471249403988
:103C4000086070470F49C86470470B49C8717047D6
:103C50000948406A40F08070074948627047014651
:103C60000020054A92680A400AB1012000E00020C5
:103C70007047014988727047001002400000FFF849
:103C8000FFFFF6FE000042428004424200127A002A
:103C900000093D003A0000204A00002010B504460B
:103CA000FE48844208D10121C014FFF7ADFF002176
:103CB000E014FFF7A9FFC4E0B4F1804F08D101215F
:103CC0000846FFF7AEFF00210120FFF7AAFFB8E08A
:103CD000F348844208D101210220FFF7A2FF00210E
:103CE0000220FFF79EFFACE0EE48844208D101219C
:103CF0000420FFF796FF00210420FFF792FFA0E0C9
:103D0000E948844208D101210820FFF78AFF0021F9
:103D10000820FFF786FF94E0E448844208D101219F
:103D20001020FFF77EFF00211020FFF77AFF88E0C8
:103D3000DF48844208D101212020FFF772FF0021D3
:103D40002020FFF76EFF7CE0DA48844208D1012191
:103D50004014FFF759FF00216014FFF755FF70E092
:103D6000D548844209D10121C804FFF74DFF002145
:103D70004FF40020FFF748FF63E0D048844209D1A8
:103D800001210805FFF740FF00214FF48010FFF7E5
:103D90003BFF56E0CA48844209D101214805FFF79C
:103DA00033FF00214FF40010FFF72EFF49E0C54814
:103DB000844208D101214020FFF733FF0021402039
:103DC000FFF72FFF3DE0C048844208D10121802049
:103DD000FFF727FF00218020FFF723FF31E0BB48DA
:103DE000844208D101218015FFF71BFF0021A01597
:103DF000FFF717FF25E0B648844209D101210804E6
:103E0000FFF702FF00214FF48030FFF7FDFE18E0BE
:103E1000B048844209D101214804FFF7F5FE002192
:103E20004FF40030FFF7F0FE0BE0AB48844208D1BE
:103E300001218804FFF7E8FE00214FF48020FFF7FE
:103E4000E3FE10BD00220288944B98420ED0994B9D
:103E500098420BD0B0F1804F08D0914B984205D0DA
:103E6000904B984202D0904B984204D14FF68F73FA
:103E70001A404B881A438D4B984207D08C4B98427E
:103E800004D04FF6FF431A40CB881A4302808B8838
:103E900083850B880385814B98420BD0854B9842D4
:103EA00008D08B4B984205D08A4B984202D08A4B5F
:103EB000984201D10B7A038601238382704770B543
:103EC000002400220023058C4FF6FE763540058441
:103ED000028C8388048B4FF68F752C40B51E2C40C6
:103EE0000D882C43751E2A400D892A434D882A438C
:103EF0006A4DA8420BD06F4DA84208D0744DA8421D
:103F000005D0744DA84202D0734DA84213D14FF68C
:103F1000F7752A404D892A434FF6FB752A408D8854
:103F20002A434FF6FF652B404FF6FF552B408D89F6
:103F30002B43CD892B4383800483CD8885860284DF
:103F400070BD70B5002400220023058C4FF6EF767B
:103F500035400584028C8388048B48F6FF752C401D
:103F60004FF6FF452C400D884FF6FF7606EA0525F3
:103F70002C434FF6DF752A400D8906EA05152A43C2
:103F80004D8806EA05152A43444DA84202D0494D02
:103F9000A8421DD14FF67F752A404D894FF6FF7616
:103FA00006EA05152A434FF6BF752A408D8806EAB2
:103FB00005152A434FF6FF352B404FF2FF752B4076
:103FC0008D8906EA85052B43CD8906EA85052B43B5
:103FD00083800483CD880587028470BD70B500247A
:103FE00000220023058C4FF6FF6635400584028CC5
:103FF0008388848B4FF68F752C404FF6FC752C40D0
:104000000D882C434FF6FF552A400D894FF6FF7659
:1040100006EA05252A434D8806EA05252A431F4D51
:10402000A84202D0234DA8421DD14FF2FF752A406D
:104030004D894FF6FF7606EA05252A434FF6FF35F0
:104040002A408D8806EA05252A434EF6FF752B4047
:104050004DF6FF752B408D8906EA05152B43CD895A
:1040600006EA05152B4383808483CD8885870284E7
:1040700070BD70B5002200230024058C4EF6FF763B
:1040800035400584038C8488828B48F6FF752A406E
:104090004FF6FF452A400D8820E00000002C01402B
:1040A0000004004000080040000C004000100040E8
:1040B0000014004000340140004C01400050014019
:1040C0000054014000180040001C00400020004047
:1040D0000040014000440140004801404FF6FF7697
:1040E00006EA05252A434DF6FF752B400D8906EAA1
:1040F00005352B434D8806EA05352B43FA4DA8427A
:1041000002D0FA4DA84208D14BF6FF752C408D899C
:104110004FF6FF7606EA85152C4384808283CD888E
:10412000A0F84050038470BD828B4FF2FF331A40D9
:104130008283828B4FF6FF7303EA01231A43828343
:104140007047F0B50C461546002200210026078C6A
:104150004EF6FF7C07EA0C070784828B018C4FF632
:10416000FF7707EA043640F6FF473A404FF6FF77FD
:1041700007EA05273A434FF6FF7707EA03373A4342
:10418000D94FB8420ED0D94FB8420BD0B0F1804FC2
:1041900008D0D74FB84205D0D64FB84202D0D64F3C
:1041A000B84206D14DF6FF77394046F4805739437F
:1041B00005E047F6FF57394044F48057394382837E
:1041C0000184F0BD828B4FF6F3731A408283828B99
:1041D0000A4382837047F0B50C4615460022002141
:1041E0000026078C4FF6FF6C07EA0C070784828BCA
:1041F000018C4FF6FF7707EA04264FF60C773A401A
:104200004FF6FF7707EA03172F433A43B64FB842FA
:104210000ED0B64FB8420BD0B0F1804F08D0B44F9B
:10422000B84205D0B34FB84202D0B34FB84206D11E
:104230004FF6FF57394046F48077394305E04FF297
:10424000FF57394044F48077394382830184F0BDBD
:10425000028B4FF2FF331A400283028B4FF6FF733B
:1042600003EA01231A4302837047F0B50C46154652
:10427000002200210026078C4FF6EF7C07EA0C078E
:104280000784028B018C4FF6FF7707EA041640F68D
:10429000FF473A404FF6FF7707EA03373A434FF6B6
:1042A000FF7707EA05273A438F4FB8420ED08F4F6A
:1042B000B8420BD0B0F1804F08D08D4FB84205D036
:1042C0008C4FB84202D08C4FB84206D14FF6DF7700
:1042D000394046F01007394305E04FF65F77394023
:1042E00044F01007394302830184F0BD028B4FF67E
:1042F000F3731A400283028B0A4302837047F0B5BE
:104300000C46154600220021068C4FF6FE773E40F3
:104310000684028B018C4FF60C7632407E1C06EA36
:1043200003162E433243704EB0420ED06F4EB04251
:104330000BD0B0F1804F08D06D4EB04205D06D4E1D
:10434000B04202D06C4EB04206D14FF6FD763140FD
:1043500044F00106314305E04FF6F576314044F074
:104360000106314302830184F0BD70B505460C4659
:104370005D4885420ED05D4885420BD0B5F1804F37
:1043800008D05B48854205D05A48854202D05A4839
:10439000854200D100E000BF208850B92389A2885F
:1043A00061882846FFF7ABFFE1882846FFF79EFFAC
:1043B00025E0208804280AD12389A288618828461C
:1043C000FFF753FFE1882846FFF742FF17E02088F8
:1043D00008280AD12389A28861882846FFF7FBFEB6
:1043E000E1882846FFF7EEFE09E02389A28861886C
:1043F0002846FFF7A6FEE1882846FFF795FE70BD28
:104400002DE9F04105460C4600260127608808B9D1
:10441000022600E00026A088012801D1022700E042
:1044200001272088A0B92389A28861882846FFF740
:1044300066FFE1882846FFF759FF23893A4631464F
:104440002846FFF712FFE1882846FFF701FF13E037
:104450002389A28861882846FFF707FFE18828465C
:10446000FFF7F6FE23893A4631462846FFF747FF15
:10447000E1882846FFF73AFFBDE8F0810A884B88BB
:104480001A438B881A43CB881A430B891A434B89EA
:104490001A438B891A43A0F8442070474FF6FF71E6
:1044A000818000210180C18041800172704700211C
:1044B000018041808180C180018141818181C181F0
:1044C0007047002101804180012181800021C1804D
:1044D000018170470021018041808180C18001817C
:1044E0004181818170470000002C0140003401406F
:1044F0000004004000080040000C004021B1028888
:1045000042F00102028004E002884FF6FE731A4076
:104510000280704731B1B0F8442042F40042A0F864
:10452000442005E0B0F84420C2F30E02A0F8442075
:1045300070471AB183890B43838102E083898B43DF
:10454000838170478182704741EA0203A0F84830B6
:1045500070471AB183890B43838102E083898B43BF
:104560008381704701894FF6F872114001817047CD
:104570000A46002101894FF68F73194011430181CA
:10458000704730B504460D4629462046FFF7F0FF38
:10459000208940F00700208130BD2DE9F04104461C
:1045A0000D4616461F46602D06D13B460122314678
:1045B0002046FFF75AFE05E03B46012231462046E1
:1045C000FFF79DFE29462046FFF7D2FF208940F0E5
:1045D00007002081BDE8F08130B50C46002101893B
:1045E000C9B24FF6FF7505EA032515432543294354
:1045F000018130BD2DE9F04105460E46174698462B
:10460000002443463A4631462846FFF7E5FF2C8909
:104610004FF6F870044044F007044FF68F700440E2
:1046200044F070042C81BDE8F081F0B504460D46DD
:1046300016461F463B46324629462046FFF7CCFF2A
:10464000208940F480402081F0BD0185828270473E
:104650000A46002101884FF68F73194011430180EB
:104660007047F0B50C4615461E4600210022002377
:104670000189028B038C4FF6F877394021434FF6BE
:10468000FC473A4040F201173A434FF6DD773B4092
:104690004FF6FF7707EA06172F433B43018102835A
:1046A0000384F0BD0A460021018B4FF68F73194039
:1046B0001143018370470A460021018B48F6FF73BE
:1046C00019404FF6FF7303EA022319430183704731
:1046D0000A460021818B4FF68F7319401143818365
:1046E00070470A460021818B48F6FF7319404FF648
:1046F000FF7303EA022319438183704721B10288C3
:1047000042F08002028004E002884FF67F731A4074
:104710000280704721B1828842F00402828004E066
:1047200082884FF6FB731A408280704721B18288DD
:1047300042F00802828004E082884FF6F7731A4044
:104740008280704721B1828842F00102828004E0B9
:1047500082884FF6FE731A40828070470A46002115
:10476000018B4FF6F77319401143018370470A46D6
:104770000021018B4FF2FF7319404FF6FF7303EADC
:1047800002231943018370470A460021818B4FF6AB
:10479000F77319401143818370470A460021818BCA
:1047A0004FF2FF7319404FF6FF7303EA02231943D8
:1047B000818370470A460021018B4FF6FB73194035
:1047C0001143018370470A460021018B4FF6FF33E6
:1047D00019404FF6FF7303EA022319430183704720
:1047E0000A460021818B4FF6FB73194011438183E8
:1047F00070470A460021818B4FF6FF3319404FF670
:10480000FF7303EA02231943818370470A4600219C
:10481000018B4FF67F7319401143018370470A469D
:104820000021018BC1F30E014FF6FF7303EA02234F
:104830001943018370470A460021818B4FF67F732D
:1048400019401143818370470A460021818BC1F3CF
:104850000E014FF6FF7303EA022319438183704769
:104860000A460021018C4FF6FD7319401143018463
:1048700070470A460021018C4FF6F7731940114327
:10488000018470470A460021018C4FF6DF731940FE
:104890004FF6FF7303EA02131943018470470A4677
:1048A0000021018C4FF67F7319404FF6FF7303EA26
:1048B00002131943018470470A460021018C4FF608
:1048C000FF5319404FF6FF7303EA02231943018493
:1048D00070470A460021018C4FF2FF7319404FF6D2
:1048E000FF7303EA02231943018470470A4600213B
:1048F000018C4DF6FF7319404FF6FF7303EA023344
:1049000019430184704730B5002301248C40A3B2C1
:10491000048C9C430484048C02FA01F5ADB22C4350
:10492000048430BD30B5002304248C40A3B2048C31
:104930009C430484048C02FA01F5ADB22C43048438
:1049400030BD70B5034600200024184618300125FC
:104950008D40ACB21D8CA5431D8409B1082909D135
:1049600000EB6100056825F07005056005681543DA
:1049700005600EE00D1FC5F34E052844056825F4BB
:10498000E045056005684FF6FF7606EA02263543E6
:10499000056070BD21B1028842F00202028004E08D
:1049A00002884FF6FD731A400280704721B10288D9
:1049B00042F00402028004E002884FF6FB731A40C2
:1049C0000280704721B1828842F08002828004E038
:1049D00082884FF67F731A408280704702884FF6B4
:1049E000F7731A40028002880A4302807047828867
:1049F0004FF68F731A40828082880A438280704704
:104A000002894FF6F8731A40028102890A43028133
:104A1000704702894FF67F731A40028102890A4368
:104A20000281704781847047818570478186704715
:104A30000187704781877047A0F84010704702884F
:104A40004FF6FF431A40028002880A4302807047F3
:104A50000146888E70470146088F70470146888F4F
:104A600070470146B1F8400070470146888C704796
:104A70000146088D704702460020138A0B400BB197
:104A8000012000E000207047CA430282704730B521
:104A90000246002000230024158A05EA01039589B7
:104AA00005EA010413B10CB1012000E0002030BD83
:104AB000CA4302827047000010B50446FB48844296
:104AC00009D101218803FFF79FF800214FF48040AE
:104AD000FFF79AF832E0F648844209D101214804F0
:104AE000FFF79FF800214FF40030FFF79AF825E018
:104AF000F048844209D101218804FFF792F800218F
:104B00004FF48020FFF78DF818E0EB48844209D17C
:104B10000121C804FFF785F800214FF40020FFF7BA
:104B200080F80BE0E548844208D101210805FFF731
:104B300078F800214FF48010FFF773F810BD2DE9CD
:104B4000F04786B005460E460024A24600BFA146A7
:104B50000027B08900B100BF2F462C8A4CF6FF70A9
:104B60000440F08804432C82AC894EF6F3100440D4
:104B7000B08831890843718908430443AC81AC8A09
:104B80004FF6FF400440B0890443AC8201A8FEF711
:104B9000B4FFC648874202D1DDF810A001E0DDF87D
:104BA0000CA0A88900F4004040B10AEBCA0000EB59
:104BB0000A1031684900B0FBF1F807E00AEBCA00BF
:104BC00000EB0A1031688900B0FBF1F86420B8FBF3
:104BD000F0F004012009642101FB1089A88900F488
:104BE000004040B1322000EBC900B0FBF1F000F012
:104BF0000700044308E0322000EB09106421B0FBF9
:104C0000F1F000F00F0004432C8106B0BDE8F087FE
:104C10004FF41651016000218180C18001810C2177
:104C2000418100218181704710B502460020108A21
:104C30004FF2FF0318400B884C8823438C88234392
:104C4000CC8823431843108210BD0021018041808D
:104C50008180C180704721B1828942F400528281F3
:104C600004E082894DF6FF731A4082817047F0B5E7
:104C70000346002400260025002040F66A17B942AA
:104C800000D100BF1846C1F3421401F01F060127EE
:104C900007FA06F5012C01D10C3004E0022C01D1F9
:104CA000103000E014301AB107682F43076002E0AB
:104CB0000768AF430760F0BD1AB1838A0B43838254
:104CC00002E0838A8B4383827047028A4FF6F07337
:104CD0001A400282028A0A430282704782894FF296
:104CE000FF731A40828182890A438281704721B111
:104CF000828942F00202828104E082894FF6FD73CC
:104D00001A4082817047028A4FF6DF731A4002828E
:104D1000028A0A430282704721B1028A42F4804229
:104D2000028204E0028A4BF6FF731A400282704747
:104D3000C1F308028280704701468888C0F30800EA
:104D40007047818941F0010181817047028BD2B2A5
:104D50000283028B42EA012202837047028B02F433
:104D60007F420283028B0A430283704721B1828A09
:104D700042F02002828204E0828A4FF6DF731A40FA
:104D80008282704721B1828A42F01002828204E05E
:104D9000828A4FF6EF731A408282704721B1828A6D
:104DA00042F00802828204E0828A4FF6F7731A40CA
:104DB0008282704721B1828942F40042828103E0FD
:104DC0008289C2F30E028281704721B1828A42F445
:104DD0000062828204E0828A4FF2FF731A4082826C
:104DE0007047828A4FF6FB731A408282828A0A4396
:104DF0008282704721B1828A42F00202828204E0FC
:104E0000828A4FF6FD731A40828270470246002064
:104E1000B1F5007F00D100BF13880B400BB101201A
:104E200000E00020704701F40072B2F5007F00D16D
:104E300000BFCA430280704770B5024600240023B9
:104E40000025002040F66A16B14200D100BFC1F330
:104E5000421501F01F03012606FA03F3012D02D1CA
:104E60009689334006E0022D02D1168A334001E0D4
:104E7000968A33400C12012606FA04F41688344050
:104E800013B10CB1012000E0002070BD10B500226C
:104E9000002340F66A14A14200D100BF0A12012487
:104EA0009440A3B2DC43048010BD000000380140F0
:104EB0000044004000480040004C004000500040CA
:104EC000704700000FB4044910B503AA029800F01F
:104ED000C3F810BC5DF814FB340000202DE9F0414C
:104EE0000E460446002020622046E168884730B321
:104EF000252805D0D4E901219047206A401CF2E71B
:104F0000E168204600278847050018D0A5F1410038
:104F1000192802D820354FF400673246294620462A
:104F20002760FBF71DF940B1012804D0F61D26F0DB
:104F300007060836D8E7361DD6E72846DAE7206A9E
:104F4000BDE8F08170B504460D4621461068AFF308
:104F500000802188090502D50F4A7A4402E00E4AF2
:104F60007A440E32002104F1240305E000F00F061C
:104F70000009965D5E54491C0028F7D12078002373
:104F8000000704D5702D02D009B10223113220464A
:104F9000BDE8704000F006B89017000070477047F9
:104FA000704770472DE9F0470D46994692460446F2
:104FB00000F124080168880604D5E06921F0100199
:104FC000216000E00120A84201DD471B00E000272E
:104FD000A1697A1902EB0900081AA0612078C006BD
:104FE00002D42046AFF30080002608E0D4E9012176
:104FF0001AF806009047206A401C761C20624E4535
:10500000F4DB2078C0060AD52046AFF3008006E026
:10501000D4E9012130209047206A401C2062381ECC
:10502000A7F10107F4DC07E0D4E9012118F8050035
:105030009047206A401C2062281EA5F10105F3DC80
:105040002046AFF300802078000602D50220BDE89C
:10505000F0870120FBE70000074B70B50D467B444D
:1050600000F011F80446284600F020F810B14FF087
:10507000FF3070BD204670BD59E2FFFF01694A1C38
:1050800002610878704700B58FB0CDE90131002189
:10509000059105497944CDE9031011466846FFF7AB
:1050A0001DFF0FB000BD0000E5FFFFFF007B00F01B
:1050B00080007047754600F02BF8AE460500694643
:1050C000534620F00700854618B020B5FEF7E6F9F4
:1050D000BDE820404FF000064FF000074FF00008F9
:1050E0004FF0000B21F00701AC46ACE8C009ACE87A
:1050F000C009ACE8C009ACE8C0098D46704710B5DE
:105100000446AFF300802046BDE81040FBF73AB8F4
:10511000004870479000002030B504460D462E48E8
:10512000008848F68911884208D121464E20FBF7B5
:1051300030FC29464F20FBF72CFC4CE02648008829
:1051400049F2413188423ED12A20FBF7E3FB4FF47C
:10515000807022490861400048612012204908609F
:1051600080201E4948610861800008614010086184
:1051700040004861E0B21A49086080201749486140
:105180000861800008612B20FBF7C4FB4FF480709E
:1051900012490861400048612812114908608020C6
:1051A0000E494861086180000861401008614000B4
:1051B0004861E8B20A4908608020084948610861EE
:1051C0008000086107E021462020FBF7E2FB29462A
:1051D0002120FBF7DEFB30BD1C0000200010014049
:1051E0000C0C014021F00042A2F16052B2F5801F88
:1051F00001F0004328BFD2F17F6C0BD95FEA001C9D
:1052000043EAC20242EB507018BF704728BF20F03B
:1052100001007047B2F5801FBCBF184670474FEAC7
:10522000410C1CF5001F02D2084600F078BC70B596
:1052300000F062F900000089FFF7F6BF4FF0004070
:10524000A0F58000704700002DE9C04130B4DFF8C0
:10525000A0C23CEA111418BF3CEA131400F0EC8021
:1052600081EA03051CEA111444EAD57418BF1CEA4C
:10527000131500F0C780A4EB05044FF0004545EA84
:10528000C12145EAC32341EA505143EA525304F194
:105290007F74994204F500344FEAC0204FEAC222DD
:1052A00008BF904200F09C804FEA13650FF2401651
:1052B000765D4FEA134506FB05F7C7F1807706FBDD
:1052C00007F74FEAD737A7FB03687642C8F580385F
:1052D000A7FB06CE38BFA8F1010807FB08E64FF090
:1052E000000EA6FB028CE6FB03CEDCF1000CCEF137
:1052F000004E38BFAEF1010EA6FB0C584FF0000770
:105300004FF00005E6FB0E87A1FB08C6A0FB07CE09
:1053100016EB0E0645F10005E1FB076515F1E04EC1
:105320007EBFA4F580345FEA46066D4116F1800722
:1053300045F100054FEA17274FEA066647EA056779
:10534000A6F1DE46B6F1805F4FEA15251FD9384633
:1053500024F0010C05EBC471BCF1FE6F01EB0C11E4
:1053600002D8F0BCBDE8008124425CBF01F5801E7C
:105370009EEAC47F02D4F0BCBDE80081244238D448
:10538000F0BCA1F1C041BDE8004100F003B94FEA13
:10539000D22242EA43524FEAD323A7FB02864FEAC6
:1053A000D02040EA415007FB03661EEA0E0F4FEA89
:1053B000D12105FB026658BFA6EB0056B6EB00569E
:1053C0004FEA520E4EEAC37E18EB0E0E56EB530E0A
:1053D000BDD518EB02085E417F1C55F10005B6E70C
:1053E0004FF480154FF000074FF000064FF0000813
:1053F000ADE7F0BC4FF0000001F1C04101F0004109
:10540000BDE8008111EA0C1F0CEA131500D00CE076
:1054100013EA0C1F00F025804FF00000F0BC81EA79
:10542000030101F00041BDE80081F0BCBDE800418E
:1054300081EA030100F0AEB8F0BCBDE8004170B5F0
:1054400000F05AF8097EFC3E00F007B881EA03013B
:105450004FF0000001F00041704781EA030100F0C5
:1054600099B8F0BCBDE800414FF0000021497047F9
:10547000FFFDFBF9F7F5F4F2F0EEEDEBE9E8E6E419
:10548000E3E1E0DEDDDBDAD8D7D5D4D3D1D0CFCDA0
:10549000CCCBCAC8C7C6C5C4C2C1C0BFBEBDBCBBD9
:1054A000BAB9B8B7B6B5B4B3B2B1B0AFAEADACABD4
:1054B000AAA9A8A8A7A6A5A4A3A3A2A1A09F9F9EAE
:1054C0009D9C9C9B9A999998979796959594939360
:1054D000929191908F8F8E8E8D8C8C8B8B8A8989F7
:1054E000888887878685858484838382828181807A
:1054F0000000FF070000F87F0EF1020E2EF0030EF1
:105500005EF8046B364205D4012A43EB030515F51A
:10551000001F12D8012841EB010C1CF5001F0CD80C
:105520000ED14FEAD17C15F5001F0CEB4C0C0CF1A1
:10553000020C08BF4CEBD37C04E04FF0080C01E0F8
:105540004FEAD37C0CEB4C0526FA05F606F007066D
:10555000B6F1040C06D20EEB860CBDE870404CF0A0
:10556000010C6047DFE80CF0090B02024FF000412C
:105570004FF00000A1F5002170BD1946104601282A
:1055800051EB010418BFD4F5001484BF002001F0D2
:10559000004170BD0808A0F500114FEA31017047C5
:1055A00043004FEAD30C4FEA3C0C43401FBF400777
:1055B0000CF1605113F0FE4F70471CF0006F03D1E7
:1055C00000200CF0004170470CF0004343EA50709B
:1055D00010B540EACC0000F05CFA00BF0000009279
:1055E0004FEA0001FFF7D6BF4FF000414FF0000037
:1055F000A1F500217047000090EA010F48BF81F03B
:10560000004100F1D482421A3CBF801A89184FEA47
:10561000D0524FF07F4C1CEA410FA2EBD15318BF80
:105620009CEA026F00F03B804FF0004C4CEA0020F7
:105630004CEA012121FA03FC10EB0C0C1ED202F102
:10564000FF325FEA1C2040EBC25038BF70471CF0AD
:105650007F0F4FEA400C18BFBCF17F4F38BF704737
:10566000C3F12003994008BF20F00100BCF17F4F37
:1056700038BF7047A0F1C04000F051BA4FEA3C007B
:10568000000A40EBC25028BF1CF0FF0F4FEA400C4D
:10569000E6D018BFBCF17F4F38BF7047EAE79CEAFD
:1056A000026F05D010EA5C0F08BF00F000407047A1
:1056B00010B500F0EEF900BF64FBBE3E401058BFCD
:1056C000C0F14040491058BFC1F140418142EFF361
:1056D000008070474FF47F0C1CEAD0121EBF1CEAFA
:1056E000D11392EA0C0F93EA0C0F00F0858090EA38
:1056F000010F48BF42F4807240F4000C41F40000F6
:105700002CF07F4120F07F4000B58142A2EB0302E4
:105710000FF2081CACEB504EC0F100009EF800E008
:105720004FEA4E0E00FB0EFC38BF49004FEA2C1C1E
:1057300002F5FA020CFB0EF34FEACE1E4FEA112CD3
:105740004FEAC1210EEB635E42EB22420EFB0CFCE2
:105750004FEA1C5300FB03114FEA112C4FEA0131B1
:105760000EFB0CFC4FEADC4C00FB0C11C14228BFC5
:1057700009184CEB03335DF804EB10EB410143EBEC
:10578000C250B2F57C0F38BF704729D512F0F00F28
:105790001CBF00F1C04000F00040704700818283D0
:1057A0008485868788898B8C8D8E8F919293959630
:1057B00097999A9C9D9FA0A2A3A5A7A8AAACAEB0BA
:1057C000B2B3B5B7B9BCBEC0C2C5C7C9CCCED1D4BF
:1057D000D7D9DCDFE2E6E9ECF0F3F7FAFE000000EF
:1057E0004FEA400C0CF1807CBCF17E4F28BF704723
:1057F000B0F1C04000F093B990EA010F0CEAD11368
:1058000048BF42F48072624538BF634507D213F443
:105810007F0F16D080EA010000F00040704710B5FD
:1058200000F037F9097EFC3E00F005B880EA01007F
:1058300000F00040704780EA010000F0004000F0F6
:105840006EB912F47F0F04BF0248704780EA01006E
:1058500000F065B90000C07F41000B0ED3F19E023D
:1058600008D950F400034FEA032323FA02F048BF9B
:105870004042704710B500F00CF900BF49922480F7
:10588000002070476FF0004282EA2000704700005D
:10589000C10DD1F19E0206DB4FEA002343F0004325
:1058A00023FA02F07047004207D54FEA4001B1F1F8
:1058B000FE4F02D24FF00000704710B500F0E9F83B
:1058C00049922480002070476FEA20007047000052
:1058D00010F0004148BF4042B0FA80F310FA03F2E2
:1058E000C3F19D030BD051EAC35101EB12205306C3
:1058F00038BF704700F1010008BF20F00100704779
:10590000B0FA80F310FA03F2C3F19D030AD0D9056F
:1059100001EB1220530638BF704700F1010008BFA9
:1059200020F001007047000050EA010C00F11380E4
:105930001CF5000F58BFBCF5000F01D4884270471A
:1059400007D710F5000F58BF11F5000F15D4884286
:105950007047894270471CF5000F04D5BCF5000F55
:10596000F7D5814270474FF0807C1CEB400F38BF69
:105970001CEB410F01D28142704710B500F089F84D
:10598000922449004FF000504FF08051FFF796BE2F
:105990004FF47F0C1CEAD0121EBF1CEAD11392EA0E
:1059A0000C0F93EA0C0F00F0478090EA010F48BFFC
:1059B00042F480724FF0004C4CEA00204CEA012186
:1059C00002EB0302A0FB0113A2F50002002918BF9D
:1059D00043F001035B0028BF4FEA330342EB22424E
:1059E0005FEA132C4CEBC2502EBFBCEB436FB2F5F9
:1059F0007C0F70474FEA036CBCF1004F08BF20F0EA
:105A00000100B2F57C0F38BF70470BD582F0FF0262
:105A100012F5803FC8BF704700F1C040D8BF00F00A
:105A20000040704700F5000C5FEA4C0C48BF70471F
:105A3000B0F1C04000F073B890EA010F0CEAD11346
:105A400048BF42F48072624538BF634504D280EAA1
:105A5000010000F00040704710B500F01AF800BFD8
:105A60008900013E00F007B800F009B85FEA410C78
:105A70005FEA1C6C08D080EA010000F050B85FEAD1
:105A8000400C5FEA1C6CF6D14FF00040A0F580009E
:105A900070470EF1020E2EF0030E5EF8044B244206
:105AA00004D44FEA4102B2F17F4F11D84FEA4003CC
:105AB000B3F17F4F0CD80ED14FEAD07CB2F17F4FBB
:105AC0000CEB4C0C0CF1020C08BF4CEBD17C04E04D
:105AD0004FF0080C01E04FEAD17C0CEB4C0324FAA8
