:020000040800F2
:10000000F0060020713600088D0900088F090008ED
:1000100093090008970900089B09000800000000E8
:100020000000000000000000000000009F09000820
:10003000A109000800000000A3090008A5090008A4
:100040008B3600088B3600088B3600088B3600088C
:100050008B3600088B3600088B3600088B3600087C
:100060008B3600088B3600088B3600088B3600086C
:100070008B3600088B3600088B3600088B3600085C
:100080008B3600088B3600088B3600088B3600084C
:100090008B3600088B3600088B3600088B3600083C
:1000A0008B3600088B3600088B3600088B3600082C
:1000B0008B3600088B3600088B3600088B3600081C
:1000C0008B3600088B3600088B3600088B3600080C
:1000D0008B360008E73500088B3600088B360008A1
:1000E0008B3600088B3600088B36000800F002F8CB
:1000F00000F04DF80AA090E8000C82448344AAF175
:100100000107DA4501D100F042F8AFF2090EBAE872
:100110000F0013F0010F18BFFB1A43F0010318473B
:10012000206A0000406A0000103A24BF78C878C1F5
:10013000FAD8520724BF30C830C144BF04680C60ED
:10014000704700000023002400250026103A28BF35
:1001500078C1FBD8520728BF30C148BF0B60704739
:10016000662905F05287642904F0A280782904F0FA
:10017000DB80002070471FB504F01AFC040000204B
:10018000002105F0D9F9E0601FBD10B510BD04F0E5
:1001900027FD1146FFF7EFFF00F008F804F045FDDA
:1001A00003B4FFF7F2FF03BC03F0C2F9ECB0002682
:1001B0000025002402F00CFF00F065FC482003F04D
:1001C0005BF903F0AFF94FF4165003F0C0F903F0F8
:1001D00059F800F09DFF4FF47840F9490880F9A2E2
:1001E00046213C2002F0C6FEF9A25A213C2002F032
:1001F000C1FEFCA26E213C2002F0BCFE1F20F04993
:100200000880FBA282213C2002F0B4FEFCA29621D1
:100210003C2002F0AFFEFEA2AA213C2002F0AAFE82
:10022000FDA2BE213C2002F0A5FEFEA2D2213C2070
:1002300002F0A0FEF2A2E6213C2002F09BFEFBA20F
:10024000FA213C2002F096FEEDA24FF487713C208B
:1002500002F090FE02F012FF4FF47A7003F026F9DC
:100260004FF47A7003F022F902F008FF79E30B20D3
:1002700002F0A6FF6B906B9805F052FB02460B460E
:10028000CDE90001EBA004F007F86B9805F0C0FC85
:100290001FFA80FA102003235246BE2100904C2002
:1002A00002F0F0FD504605F0EBFC01906B9905F073
:1002B0002CFE6A90E4496A9805F02AFD009005F04A
:1002C0008BFC019005F0C4FC6A906A9805F0A0FCD4
:1002D0000190102001230090BE216C20019A02F0B1
:1002E000D1FDDA496B9805F0DFFD04D2D8A21E21BA
:1002F0003C2002F03FFE02F0D6FF0646002E74D0EE
:100300003146D6A003F0C8FF012E46D0022E43D1BD
:100310000B2002F055FF6B906B9805F001FB024635
:100320000B46CDE90001C3A003F0B6FF6B9805F0C2
:100330006FFC1FFA80FA102003235246BE21009062
:100340004C2002F09FFD504605F09AFC01906B99FD
:1003500005F0DBFD6A90BC496A9805F0D9FC009075
:1003600005F03AFC019005F073FC6A906A9805F07C
:100370004FFC0190102001230090BE216C20019AB7
:1003800002F080FDB1496B9805F08EFD04D2B0A259
:100390001E213C2002F0EEFDDFE2DBE202F0FEFF78
:1003A000B149087008460178B0A003F075FFAE4867
:1003B0000078002872D0AC48007811286FD2DFE8AE
:1003C00000F06E0915202B36414C57626F81909AD0
:1003D000E9FEFD0004EB8400A349097801EB40002D
:1003E00084B2A1480078669092E2B7E204EB840000
:1003F0009D49097801EB400084B29B4800786690E3
:1004000086E204EB84009849097801EB400084B24D
:100410009548007866907BE204EB84009249097865
:1004200001EB400084B290480078669070E204EBE3
:1004300084008D49097801EB400084B28A48007835
:10044000669065E204EB84008749097801EB40007F
:1004500084B28548007866905AE204EB84008249B1
:10046000097801EB400084B27F48007866904FE243
:1004700004EB84007C49097801EB400084B27A489F
:100480000078669044E204EB84007749097801EB38
:10049000400084B274480078669039E255E236E252
:1004A00004EB84004FF6FF7101EA40046E480078C7
:1004B00066906D4801786FA003F0EEFE71A003F026
:1004C000EBFE25E26698201A0A21B0FBF1F084B217
:1004D0006548017867A003F0DFFE6AA003F0DCFE48
:1004E00016E200246048017862A003F0D5FE65A002
:1004F00003F0D2FE0CE202F0C1FD0B2002F060FE20
:100500006B906B9805F00CFA02460B46CDE90001A2
:1005100048A003F0C1FE6B9805F07AFB1FFA80FA41
:10052000102003235246BE2100904C2002F0AAFC6A
:10053000504605F0A5FB01906B9905F0E6FC6A902A
:1005400041496A9805F0E4FB009005F045FB0190F5
:1005500005F07EFB6A906A9805F05AFB0190102026
:1005600001230090BE216C20019A02F08BFC3749D8
:100570006B9805F099FC04D235A21E213C2002F0B4
:10058000F9FC394801783BA003F086FE3DA003F05A
:1005900083FEBDE1002505E0002002A941F8250009
:1005A000681CC5B2642DF7DB0025002702A951F8AD
:1005B000250005F02DFB80B2689065E051E1C7E0B1
:1005C0001800002057656C636F6D65210000000006
:1005D00074656D70657261747572653A2020202EA5
:1005E000204300004355474057796D616E0000007D
:1005F00076616C75655F7065725F673A0000000038
:1006000020202020302E30307975616E00000000EF
:100610007765696768743A0020202020302E3067A3
:100620000000000076616C75653A000073756D3AE4
:1006300000000000BEBBD6D8C1BF203D2025302E13
:10064000316620670D0A0000000020410000FA43D7
:100650007761726E696E6721000000006B6579201A
:100660003D202564200D0A00000000202564200A9A
:10067000000000005265616456616C75653D25643B
:10068000000000000A00000002A850F82580102099
:1006900005230090E6213C20689A02F0F3FB68985D
:1006A00005F0EEFA4146019005F02FFC8046AD4979
:1006B000404605F02DFB009005F08EFA019005F004
:1006C000C7FA8046404605F0A3FA019010200223A5
:1006D0000090E6216C20019A02F0D4FB384605F028
:1006E00097FA80B26790B9461020052300904FF426
:1006F00087713C20679A02F0C5FB679805F0C0FA45
:100700004946019005F001FC81469649484605F0AE
:10071000FFFA009005F060FA019005F099FA814621
:10072000484605F075FA01901020022300904FF41E
:1007300087716C20019A02F0A5FB8B480178AFF21B
:10074000CC0003F0A9FDAFF2C40003F0A5FDDFE08B
:10075000204605F095FA00906B9905F0D9FA814989
:10076000019005F077F902A941F825006B9805F092
:100770004FFA1FFA80FA102003235246BE21009040
:100780004C2002F07FFB504605F07AFA01906B99FD
:1007900005F0BBFB6A9075496A9805F0B9FA0090BC
:1007A00005F01AFA019005F053FA6A906A9805F07C
:1007B0002FFA0190102001230090BE216C20019A95
:1007C00002F060FB02A951F8250005F021FA80B281
:1007D000689002A850F82580102005230090E6219B
:1007E0003C20689A02F04EFB689805F049FA4146B1
:1007F000019005F08AFB80465A49404605F088FA88
:10080000009005F0E9F9019005F022FA8046404693
:1008100005F0FEF90190102002230090E6216C20E3
:10082000019A02F02FFB50480178AFF2B81003F0A4
:1008300033FDAFF2B01003F02FFD02A951F82500EF
:1008400005F06EF802460B46CDE9000148A003F022
:1008500023FDAFF2D01003F01FFD0024681CC5B2C9
:1008600056E0002508E002A850F82510384605F0AB
:1008700083F80746681CC5B2642DF4DB384605F0E2
:10088000C7F980B26790B9461020052300904FF455
:1008900087713C20679A02F0F5FA679805F0F0F945
:1008A0004946019005F031FB81462E49484605F046
:1008B0002FFA009005F090F9019005F0C9F98146F2
:1008C000484605F0A5F901901020022300904FF44E
:1008D00087716C20019A02F0D5FA23480178AFF2B3
:1008E0006C2003F0D9FCAFF2642003F0D5FC38464D
:1008F00005F016F802460B46CDE9000120A003F0F2
:10090000CBFCAFF2802003F0C7FC002700E000BF63
:1009100000BF642094FBF0F01FFA80FB1020052339
:100920005A46962100903C2002F0ACFA642094FBD9
:10093000F0F100FB114080B269901020022300907A
:1009400096216C20699A02F09DFA02F0ACFC0646F2
:1009500006B100E022E500BF00BF02E00A2002F07D
:10096000A5FD84E40000C8420000002000002041F2
:10097000B1BECEEFC6B73D25302E32660000000076
:10098000D7DCBCDB3D25302E32660000704700BF4F
:10099000FEE700BFFEE700BFFEE700BFFEE77047CF
:1009A00070477047704700000CB500200190009020
:1009B0006C48006840F480306A49086000BF6948AC
:1009C000006800F4003000900198401C01900098ED
:1009D00018B90198B0F5A06FF1D16248006800F431
:1009E000003010B10120009001E00020009000983C
:1009F000012843D15C48006840F010005A49086063
:100A00000846006820F0030008600846006840F0CF
:100A100002000860534840685249486008464068F0
:100A200048600846406840F4806048600846406876
:100A300020F47C1048600846406840F4E8104860A4
:100A40000846006840F08070086000BF45480068B4
:100A500000F000700028F9D04248406820F0030000
:100A6000404948600846406840F00200486000BFC6
:100A70003C48406800F00C000828F9D10CBD10B5C6
:100A8000FFF792FF10BD10B53648006840F0010036
:100A90003449086008464068344908403149486094
:100AA00008460068324908402E4908600846006838
:100AB00020F4802008600846406820F4FE0048606A
:100AC0004FF41F008860FFF7DAFF4FF000602949FC
:100AD000086010BD10B5002100200022214B5B688A
:100AE00003F00C0121B1042906D0082928D107E020
:100AF000214B224C236027E01F4B204C236023E036
:100B0000184B5B6803F47010164B5B6803F480327B
:100B1000022303EB904022B9194B4343174C236047
:100B20000DE0104B5B6803F4003323B1144B4343D7
:100B3000124C236003E0104B4343104C236003E04E
:100B40000D4B0E4C236000BF00BF064B5B68C3F328
:100B500003130C4CE15C094B1B68CB40074C236032
:100B600010BD000000100240002002400000FFF80D
:100B7000FFFFF6FE08ED00E000127A0004000020FE
:100B800000093D00080000204FF48071FE4A5161C9
:100B900049005161FD49086080215161116189005E
:100BA0001161704710B54FF08830F8490C39086072
:100BB000091D08600020F54908608815F2490861A0
:100BC0004000486140204861F148008848F689119A
:100BD000884202D1022002F085FC4020EA490861E7
:100BE000EA48001F006884B2481508614FF03330AE
:100BF000E6490C390860091D08604FF6FF70E349AB
:100C00000860204610BD10B504460B462046FFF78D
:100C1000BBFF4FF48070DC49086140004861DB484D
:100C200003608020486108618000086110BD10B534
:100C300004462046FFF7A8FFFFF7B4FF10BD00B53C
:100C4000D348008849F24131884203D12C20FFF774
:100C50009BFF02E02220FFF797FF00BD4FF4807159
:100C6000C94A116149005161C84908608021516138
:100C7000116189001161704730B5014601F01F0410
:100C8000C1F34513CA0AE50205EB43151544A8B2A2
:100C900030BD2DE9F04105460E46F02D02DAB6F5DD
:100CA000A07F02DB0020BDE8F0813146284604F039
:100CB000C1FBB748008849F24131884203D12E2058
:100CC000FFF762FF02E02220FFF75EFF4FF088305F
:100CD000AE490C390860091D08604FF6FF70AB493A
:100CE00008608815A84908614000486140204861B3
:100CF00008614861A648008848F68911884202D1F7
:100D0000022002F0EFFB40209F4908619F48001F2E
:100D1000006884B29E48008849F2413188420DD172
:100D200040209949486108619848001F00681FFAEF
:100D300080F8E7B24FF6FF7000EA07274FF4007023
:100D4000914908614FF0333090490C390860091D12
:100D500008604FF6FF708D4908608D48008844F2A6
:100D60003551884210D08A480088091F88420BD02C
:100D70008748008848F68911884205D08448008851
:100D80004BF20551884201D120468CE7804800880B
:100D900049F24131884207D1E012C002B91240EA5B
:100DA000411040EAE8207EE72046FFF765FF7AE73A
:100DB00000B57748008849F24131884203D12920A3
:100DC000FFF7E2FE04E040F273110720FFF71BFF7C
:100DD00000BD00B56E48008849F24131884203D118
:100DE0002820FFF7D1FE03E000210720FFF70BFFCB
:100DF00000BD70B50546002400266548008849F20C
:100E0000413188427ED1082D1CD2DFE805F004066E
:100E1000090C0F12151800BF14E044F0800411E013
:100E200044F040040EE044F0C0040BE044F0200421
:100E300008E044F0600405E044F0A00402E044F05F
:100E4000E00400BF00BF362644F0080421463046C7
:100E5000FFF7D9FE04F02000002875D02A20FFF704
:100E600093FE4FF4807048490861400048610020BB
:100E70004649086080204449486108618000086153
:100E8000401008614000486100204049086080200F
:100E90003D494861086180000861401008614000D8
:100EA000486101203949086080203749486108615C
:100EB0008000086140100861400048613F203349CC
:100EC00008608020304948610861800008612B205B
:100ED000FFF75AFE4FF480702B49086140004861CB
:100EE00000202A4908608020274948610861800065
:100EF00008614010086140004861002023490860F3
:100F0000802000E09AE02049486108618000086183
:100F1000401008614000486100201C4908608020A2
:100F2000194948610861800008614010086140006B
:100F30004861EF2015490860802013494861086125
:100F400080000861ACE0FFE72A20FFF71DFE4FF4A8
:100F500080700D4908614000486100200B4908601D
:100F600080200949486108618000086140100861DB
:100F7000400048610020054908608020024948611E
:100F800008618000086105E0001001400C0C014080
:100F90001C00002040100861400048610020FE490C
:100FA00008608020FD4948610861800008614010A8
:100FB000086140004861EF20F74908608020F74948
:100FC00048610861800008612B20FFF7DDFD4FF4C8
:100FD0008070F2490861400048610020EE490860D5
:100FE0008020EE4948610861800008614010086176
:100FF000400048610020E84908608020E7494861D6
:1010000008618000086140100861400048610120CB
:10101000E14908608020E149486108618000086179
:1010200040100861400048613F20DB490860802093
:10103000DA49486108618000086131E0082D1CD25E
:10104000DFE805F004070A0D0F12151844F030040C
:1010500013E044F0100410E044F020040DE000BF61
:101060000BE044F0380408E044F0280405E044F0C4
:10107000180402E044F0080400BF00BFC84800881C
:1010800048F68911884204D1112646F240000443F3
:1010900002E0032644F4805421463046FFF7B3FDB6
:1010A00070BD70B504460D462946204604F0C2F9CD
:1010B000FFF7C5FD4FF48070B849086140004861F2
:1010C000B8480088B44908608020B4494861086184
:1010D0008000086170BD70B50446002500210846F7
:1010E00004F0A8F9FFF7ABFD00BF0DE04FF48070EE
:1010F000AA49086140004861A7480460802048610F
:101100000861800008616D1CB5F5963FEED370BD97
:1011100008B50121192002F055FE0121A24802F074
:1011200066FC4FF4F860ADF8000010208DF8030065
:1011300003208DF802006946984802F087FB4FF4BF
:10114000F861964802F02FFC4FF6FF70ADF80000F2
:10115000694691480C3802F079FB4FF6FF718E48D2
:101160000C3802F020FC322002F0A0F9012100200E
:10117000FFF749FD322002F099F90020FFF757FDF3
:10118000874908800846008828B1084600884FF63D
:10119000FF7188421BD1D320FFF7F6FCFFF702FD59
:1011A000FFF700FDFFF7FEFC00F0BF007C49088060
:1011B000084600884FF6FF7101EA00207849088050
:1011C000FFF7F0FC764909880843754908807448A0
:1011D000018876A003F060F87148008849F2413137
:1011E00088427DD1CF20FFF7CFFC4FF480706B4950
:1011F0000861400048610020674908608020674915
:101200004861086180000861401008614000486141
:10121000C120614908608020604948610861800000
:101220000861401008614000486130205A49086058
:1012300080205A494861086180000861ED20FFF76D
:10124000A3FC4FF480705549086140004861642058
:101250005149086080205149486108618000086157
:10126000401008614000486103204B49086080201D
:101270004A494861086180000861401008614000E7
:10128000486112204449086080204449486108614F
:1012900080000861401008614000486181203E499B
:1012A000086080203D494861086180000861E820AD
:1012B000FFF76AFC4FF480703849086140004861CC
:1012C00085203549086080203449486108618000E4
:1012D0000861401008614000486110202E4900E07C
:1012E0008AE3086080202D49486108618000086118
:1012F00040100861400048617A202749086080203A
:1013000026494861086180000861CB20FFF73CFC5A
:101310004FF48070214908614000486139201E491E
:10132000086080201D494861086180000861401004
:101330000861400048612C20174908608020174947
:101340004861086180000861401008614000486100
:101350000020114908608020104948610861800020
:101360000861401008614000486134200A49086063
:1013700080200A49486108618000086140100861C6
:101380004000486102200449086080200349486108
:1013900008618000086111E00C0C01400010014060
:1013A0001C0000201800002000023000204C4344A4
:1013B0002049443A25780D0A00000000F720FFF785
:1013C000E3FB4FF48070FE49086140004861202033
:1013D000FC4908608020FA49486108618000086182
:1013E000EA20FFF7D1FB4FF48070F5490861400017
:1013F00048610020F34908608020F1494861086194
:101400008000086140100861400048610020ED49FB
:1014100008608020EA494861086180000861C020B6
:10142000FFF7B2FB4FF48070E54908614000486166
:101430001B20E44908608020E14948610861800080
:101440000861C120FFF7A0FB4FF48070DC49086100
:10145000400048610120DB4908608020D84948618C
:10146000086180000861C520FFF78EFB4FF4807093
:10147000D3490861400048613020D249086080208B
:10148000CF49486108618000086140100861400050
:1014900048613020CB4908608020C9494861086113
:1014A00080000861C720FFF76FFB4FF48070C449CC
:1014B000086140004861B720C24908608020C049E7
:1014C00048610861800008613620FFF75DFB4FF43A
:1014D0008070BB490861400048614820B9490860F4
:1014E0008020B74948610861800008613A20FFF711
:1014F0004BFB4FF48070B2490861400048615520B1
:10150000B04908608020AE494861086180000861E8
:10151000B120FFF739FB4FF48070A9490861400002
:1015200048610020A74908608020A54948610861FA
:101530008000086140100861400048611A20A149FC
:10154000086080209E494861086180000861B620DB
:10155000FFF71AFB4FF48070994908614000486119
:101560000A209849086080209549486108618000F8
:1015700008614010086140004861A220914908605C
:1015800080208F494861086180000861F220FFF7E0
:10159000FBFA4FF480708A490861400048610020DE
:1015A0008849086080208649486108618000086198
:1015B0002620FFF7E9FA4FF4807081490861400066
:1015C000486101207F49086080207D4948610861A9
:1015D00080000861E020FFF7D7FA4FF48070784967
:1015E0000861400048610F207649086080207449F6
:1015F000486108618000086140100861400048614E
:101600002A207049086080206D4948610861800087
:10161000086140100861400048612820694908605D
:1016200080206749486108618000086140100861B6
:101630004000486108206349086080206049486193
:1016400008618000086140100861400048610E2078
:101650005C49086080205A4948610861800008613F
:101660004010086140004861082056490860802009
:1016700053494861086180000861401008614000DA
:10168000486154204F49086080204D4948610861F5
:10169000800008614010086140004861A920494964
:1016A0000860802046494861086180000861401058
:1016B0000861400048614320424908608020404959
:1016C000486108618000086140100861400048617D
:1016D0000A203C490860802039494861086180003F
:1016E000086140100861400048610F2035490860DA
:1016F000802033494861086180000861401008611A
:101700004000486100202F49086080202C49486132
:1017100008618000086140100861400048610020B5
:1017200028490860802026494861086180000861D6
:101730004010086140004861002022490860802074
:101740001F4948610861800008614010086140003D
:10175000486100201B4908608020194948610861E0
:1017600080000861E120FFF70FFA4FF48070144900
:10177000086140004861002012490860802010493B
:1017800048610861800008614010086140004861BC
:1017900015200C49086080200949486108618000D3
:1017A0000861401008614000486117200549086041
:1017B000802003494861086180000861401003E00F
:1017C000001001400C0C01400861400048610720F6
:1017D000F84908608020F849486108618000086184
:1017E00040100861400048611120F24908608020E3
:1017F000F1494861086180000861401008614000BB
:1018000048610620EB4908608020EB494861086187
:101810008000086140100861400048612B20E549C4
:1018200008608020E4494861086180000861401038
:101830000861400048615620DE4908608020DE498A
:1018400048610861800008614010086140004861FB
:101850003C20D84908608020D74948610861800051
:10186000086140100861400048610520D1490860C6
:101870008020D149486108618000086140100861FA
:10188000400048611020CB4908608020CA49486167
:1018900008618000086140100861400048610F2025
:1018A000C44908608020C44948610861800008611B
:1018B00040100861400048613F20BE490860802018
:1018C000BD4948610861800008614010086140001E
:1018D00048613F20B74908608020B74948610861E6
:1018E0008000086140100861400048610F20B14944
:1018F00008608020B04948610861800008612B20A1
:10190000FFF742F94FF48070AB490861400048612D
:101910000020A84908608020A7494861086180002C
:10192000086140100861400048610020A14908603A
:101930008020A14948610861800008614010086169
:101940004000486101209B49086080209A49486115
:1019500008618000086140100861400048613F2034
:1019600094490860802094494861086180000861BA
:101970002A20FFF709F94FF480708F490861400071
:10198000486100208B49086080208B4948610861CC
:1019900080000861401008614000486100208549CE
:1019A0000860802084494861086180000861401017
:1019B00008614000486100207E49086080207E491F
:1019C000486108618000086140100861400048617A
:1019D000EF207849086080207749486108618000DD
:1019E00008611120FFF7D0F8782001F05FFD292071
:1019F000FFF7CAF801F094B87048008849F2253121
:101A000088427DD147F6F001E520FFF7FCF84FF45E
:101A100080710120FFF7F7F84FF4E0610220FFF733
:101A2000F2F841F230010320FFF7EDF80021042025
:101A3000FFF7E9F840F202210820FFF7E4F800215F
:101A40000920FFF7E0F800210A20FFF7DCF8002169
:101A50000C20FFF7D8F800210D20FFF7D4F8002163
:101A60000F20FFF7D0F800211020FFF7CCF8072156
:101A70001120FFF7C8F800211220FFF7C4F8002159
:101A80001320FFF7C0F800210720FFF7BCF841F250
:101A900090611020FFF7B7F840F227211120FFF7DF
:101AA000B2F89D211220FFF7AEF84FF4C851132071
:101AB000FFF7A9F825212920FFF7A5F80D212B20F4
:101AC000FFF7A1F807213020FFF79DF840F203311E
:101AD0003120FFF798F803213220FFF794F840F205
:101AE00006213520FFF78FF808213620FFF78BF805
:101AF00040F206413720FFF786F84FF4417100E0CD
:101B00005EE03820FFF77FF807213920FFF77BF8E8
:101B100040F202613C20FFF776F808213D20FFF7F4
:101B200072F800215020FFF76EF8EF215120FFF7E7
:101B30006AF800215220FFF766F840F23F11532067
:101B4000FFF761F84FF427416020FFF75CF80121AF
:101B50006120FFF758F800216A20FFF754F80021B0
:101B60008020FFF750F800218120FFF74CF800217A
:101B70008220FFF748F800218320FFF744F8002176
:101B80008420FFF740F800218520FFF73CF8102162
:101B90009020FFF738F84FF4C0619220FFF733F838
:101BA00040F233110720FFF72EF822210020FFF723
:101BB0002AF81FE70C0C0140001001401C00002017
:101BC000FE48008849F2283188427DD11021E72063
:101BD000FFF719F801210020FFF715F84FF4807185
:101BE0000120FFF710F84FF4E0610220FFF70BF837
:101BF00041F230010320FFF706F800210420FFF72F
:101C000002F840F207210820FEF7FDFF002109201D
:101C1000FEF7F9FF00210A20FEF7F5FF01210C2055
:101C2000FEF7F1FF00210D20FEF7EDFF00210F2050
:101C3000FEF7E9FF00211020FEF7E5FF0721112044
:101C4000FEF7E1FF00211220FEF7DDFF0021132047
:101C5000FEF7D9FF322001F029FC41F2905110200B
:101C6000FEF7D1FF40F227211120FEF7CCFF3220F2
:101C700001F01CFC9C211220FEF7C5FF322001F070
:101C800015FC4FF4C8511320FEF7BDFF2321292076
:101C9000FEF7B9FF0E212B20FEF7B5FF322001F031
:101CA00005FC00212020FEF7AEFF40F23F1121206D
:101CB000FEF7A9FF322001F0F9FB07213020FEF7E3
:101CC000A2FF40F2077100E087E03120FEF79BFFA2
:101CD00006213220FEF797FF40F204713520FEF70F
:101CE00092FF41F604713620FEF78DFF0421372064
:101CF000FEF789FF00213820FEF785FF40F20671CC
:101D00003920FEF780FF40F201713C20FEF77BFF97
:101D10000F213D20FEF777FF322001F0C7FB0021A5
:101D20005020FEF770FFEF215120FEF76CFF0021DD
:101D30005220FEF768FF40F23F115320FEF763FF89
:101D40004FF427416020FEF75EFF01216120FEF77E
:101D50005AFF00216A20FEF756FF00218020FEF77F
:101D600052FF00218120FEF74EFF00218220FEF766
:101D70004AFF00218320FEF746FF00218420FEF762
:101D800042FF00218520FEF73EFF10219020FEF744
:101D90003AFF00219220FEF736FF03219320FEF741
:101DA00032FF4FF488719520FEF72DFF0021972018
:101DB000FEF729FF00219820FEF725FF40F233119E
:101DC0000720FEF720FF00212020FEF71CFF40F235
:101DD0003F112120FEF717FF0CE67848008849F2F2
:101DE0002031884204D075480088B0F5134F7DD16A
:101DF00000210846FEF707FF4FF480710120FEF72F
:101E000002FF4FF4E0610220FEF7FDFE41F23001D7
:101E10000320FEF7F8FE00210420FEF7F4FE40F256
:101E200002210820FEF7EFFE00210920FEF7EBFE5D
:101E300000210A20FEF7E7FE01210C20FEF7E3FE59
:101E400000210D20FEF7DFFE00210F20FEF7DBFE54
:101E5000322001F02BFB40F201110720FEF7D3FEE8
:101E6000322001F023FB4FF486511020FEF7CBFE09
:101E700007211120FEF7C7FE4FF488711220FEF7EC
:101E8000C2FE4FF430611320FEF7BDFE0021292071
:101E9000FEF7B9FE44F210012B20FEF7B4FE00213C
:101EA0005020FEF7B0FEEF215120FEF7ACFE0021DE
:101EB0005220FEF7A8FE40F23F115320FEF7A3FE8A
:101EC0004FF41C516020FEF79EFE01216120FEF7B9
:101ED0009AFE00216A20FEF796FE00218020FEF780
:101EE00092FE00218120FEF78EFE00E02EE0002110
:101EF0008220FEF788FE00218320FEF784FE002169
:101F00008420FEF780FE00218520FEF77CFE102154
:101F10009020FEF778FE00219220FEF774FE01214A
:101F20009320FEF770FE4FF488719520FEF76BFE4C
:101F300000219720FEF767FE00219820FEF763FE40
:101F400040F273110720FEF75EFE53E51B48008840
:101F500045F2084188427DD14FF480710120FEF79F
:101F600052FE4FF4E0610220FEF74DFE41F23001D7
:101F70000320FEF748FE00210420FEF744FE40F255
:101F800007210820FEF73FFE00210920FEF73BFE57
:101F900000210A20FEF737FE00210C20FEF733FE59
:101FA00000210D20FEF72FFE00210F20FEF72BFE53
:101FB000142001F07BFA41F2B06101E01C00002026
:101FC0001020FEF720FE01211120FEF71CFE01214A
:101FD0001720FEF718FE4FF49C711220FEF713FE37
:101FE0004FF400611320FEF70EFE09212920FEF7B1
:101FF0000AFE09212A20FEF706FE0021A420FEF792
:1020000002FE00215020FEF7FEFDEF215120FEF7D9
:10201000FAFD00215220FEF7F6FD40F23F11532059
:10202000FEF7F1FD4FF41C516020FEF7ECFD01219D
:102030006120FEF7E8FD00216A20FEF7E4FD0021A3
:102040008020FEF7E0FD00218120FEF7DCFD00216D
:10205000822000E027E0FEF7D6FD00218320FEF776
:10206000D2FD00218420FEF7CEFD00218520FEF761
:10207000CAFD13219020FEF7C6FD00219220FEF735
:10208000C2FD03219320FEF7BEFD4FF48871952019
:10209000FEF7B9FD40F273110720FEF7B4FD3220C0
:1020A00001F004FAA6E4FE48008841F20551884296
:1020B0007ED100210720FEF7A6FD322001F0F6F9BF
:1020C0004FF48E711220FEF79EFD0121A420FEF731
:1020D0009AFD0F210820FEF796FD08210A20FEF741
:1020E00092FD08210D20FEF78EFD40F20771302091
:1020F000FEF789FD07213120FEF785FD40F20361DF
:102100003220FEF780FD4FF4E0613320FEF77BFDC7
:1021100040F202213420FEF776FD02213520FEF741
:1021200072FD41F60F713620FEF76DFD40F207712A
:102130003720FEF768FD00213820FEF764FD0021FE
:102140003920FEF760FD40F207713A20FEF75BFD93
:1021500000213B20FEF757FD07213C20FEF753FDF1
:1021600000213D20FEF74FFD322001F09FF90121B3
:102170000720FEF748FD01211720FEF744FD32201D
:1021800001F094F94FF4BD511020FEF73CFD40F2F0
:1021900017211120FEF737FD4FF48F711220FEF743
:1021A00032FD4FF470611320FEF72DFD002100E099
:1021B00094E02A20FEF727FD0A212920FEF723FDBF
:1021C0004FF49F711220FEF71EFD00215020FEF7F4
:1021D0001AFDEF215120FEF716FD00215220FEF7D7
:1021E00012FD40F23F115320FEF70DFD4FF41C513C
:1021F0006020FEF708FD01216120FEF704FD0021AB
:102200006A20FEF700FD00218020FEF7FCFC002183
:102210008120FEF7F8FC00218220FEF7F4FC00216B
:102220008320FEF7F0FC00218420FEF7ECFC002167
:102230008520FEF7E8FC13219020FEF7E4FC4FF424
:1022400040719220FEF7DFFC05219320FEF7DBFCB6
:1022500000219520FEF7D7FC00219720FEF7D3FC44
:1022600000219820FEF7CFFC4FF480710120FEF78B
:10227000CAFC4FF4E0610220FEF7C5FC41F23001D8
:102280000320FEF7C0FC00210420FEF7BCFC002167
:102290000C20FEF7B8FC00210F20FEF7B4FC002153
:1022A0002020FEF7B0FC00212120FEF7ACFC21210C
:1022B0000720FEF7A8FC142001F0F8F861210720A0
:1022C000FEF7A1FC142001F0F1F840F27311072091
:1022D000FEF799FC142001F0E9F86AE470480088E0
:1022E0004BF2055188427CD100210846FEF78BFC59
:1022F00000210846FEF787FC00210846FEF783FC14
:1023000000210846FEF77FFC0121A420FEF77BFC9C
:10231000142001F0CBF84FF41C516020FEF773FC41
:1023200040F202210820FEF76EFC4FF405713020C8
:10233000FEF769FC43F215713120FEF764FC40F2B0
:1023400004613220FEF75FFC40F616613320FEF791
:102350005AFC42F211213420FEF755FC4FF4A851EB
:102360003520FEF750FC48F207513620FEF74BFCB3
:1023700041F207413720FEF746FC41F20341382085
:10238000FEF741FC20213920FEF73DFC1A21902068
:10239000FEF739FC00211020FEF735FC0721112043
:1023A000FEF731FC00211220FEF72DFC0021132046
:1023B000FEF729FC142001F079F84FF4E6611020B3
:1023C000FEF721FC40F237111120FEF71CFC14200F
:1023D00001F06CF84FF4DC711220FEF714FC1420AD
:1023E00000E088E001F062F84FF470611320FEF71E
:1023F0000AFC80212A20FEF706FC48212920FEF74E
:1024000002FC142001F052F84FF480710120FEF715
:10241000FAFB4FF4E0610220FEF7F5FB41F23021B8
:102420000320FEF7F0FB40F202210820FEF7EBFB51
:1024300000210A20FEF7E7FB00210C20FEF7E3FB5A
:1024400000210D20FEF7DFFB30210E20FEF7DBFB25
:1024500000215020FEF7D7FBEF215120FEF7D3FBE0
:1024600000215220FEF7CFFB40F23F115320FEF730
:10247000CAFB4FF41C516020FEF7C5FB012161200F
:10248000FEF7C1FB00216A20FEF7BDFB1121902061
:10249000FEF7B9FB4FF4C0619220FEF7B4FB01E0F8
:1024A0001C00002040F202419320FEF7ACFB022109
:1024B0009420FEF7A8FB142000F0F8FF012107206C
:1024C000FEF7A1FB142000F0F1FF61210720FEF7C9
:1024D0009AFB40F273110720FEF795FB00212020A4
:1024E000FEF791FB00212120FEF78DFB2221002029
:1024F000FEF789FB14E3FE4800884CF20551884240
:102500007ED100210846FEF77EFB00210846FEF73B
:102510007AFB142000F0CAFF00210846FEF773FB87
:1025200000210846FEF76FFB00210846FEF76BFB13
:1025300000210846FEF767FB0121A420FEF763FB9C
:10254000142000F0B3FF4FF41C516020FEF75BFB3A
:1025500040F606010820FEF756FB40F203713020DA
:10256000FEF751FB01213120FEF74DFB0421322003
:10257000FEF749FB4FF481713320FEF744FB4FF423
:1025800040713420FEF73FFB40F203113520FEF787
:102590003AFB1F213620FEF736FB40F2037137204D
:1025A000FEF731FB01213820FEF72DFB04213920F5
:1025B000FEF729FB15219020FEF725FB4FF48261E1
:1025C0001020FEF720FB40F247211120FEF71BFBF5
:1025D0004FF4DE711220FEF716FB4FF460611320FA
:1025E000FEF711FB782000F061FF4FF480710120AD
:1025F000FEF709FB4FF400710220FEF704FB00E038
:1026000050E041F230010320FEF7FDFA08210A20D4
:10261000FEF7F9FA00210C20FEF7F5FA20210E2032
:10262000FEF7F1FA00210F20FEF7EDFA002120203D
:10263000FEF7E9FA00212120FEF7E5FA3D212A20E4
:10264000FEF7E1FA142000F031FF2D212920FEF7DA
:10265000DAFA00215020FEF7D6FA4DF2EF015120B0
:10266000FEF7D1FA00215220FEF7CDFA40F23F11D9
:102670005320FEF7C8FA00216120FEF7C4FA0021BA
:102680006A20FEF7C0FA4FF440719220FEF7BBFAC1
:1026900005219320FEF7B7FA4FF480710720FEF76B
:1026A000B2FA3DE29248008848F6891188427DD10D
:1026B00001210020FEF7A7FA4AF6A4010320FEF745
:1026C000A2FA00210C20FEF79EFA40F60C010D2024
:1026D000FEF799FA4FF42C510E20FEF794FAB02130
:1026E0001E20FEF790FA42F63F310120FEF78BFAEA
:1026F0004FF4C0610220FEF786FA00211020FEF799
:1027000082FA46F270011120FEF77DFA00210520C1
:10271000FEF779FA00210620FEF775FA4EF61C71D5
:102720001620FEF770FA03211720FEF76CFA40F22C
:1027300033210720FEF767FA00210B20FEF763FA2A
:1027400000210F20FEF75FFA00214120FEF75BFA1F
:1027500000214220FEF757FA00214820FEF753FAE5
:1027600040F23F114920FEF74EFA00214A20FEF7C1
:102770004AFA00214B20FEF746FA4FF46F414420FD
:10278000FEF741FA00214520FEF73DFA40F23F11E5
:102790004620FEF738FA40F207713020FEF733FA90
:1027A0004FF401713120FEF72EFA00E03DE04FF4C6
:1027B00001713220FEF727FA40F202513320FEF772
:1027C00022FA40F207513420FEF71DFA4FF401714E
:1027D0003520FEF718FA4FF401713620FEF713FA90
:1027E00040F202513720FEF70EFA40F202313A2051
:1027F000FEF709FA40F202313B20FEF704FA00210D
:102800002320FEF700FA00212420FEF7FCF94FF404
:1028100000412520FEF7F7F900214F20FEF7F3F9DC
:1028200000214E20FEF7EFF97AE13148008844F2AA
:10283000315188427DD101210020FEF7E4F90A20C0
:1028400000F034FE41F228611020FEF7DCF90E2181
:102850001220FEF7D8F940F639211320FEF7D3F9FC
:102860000A2000F023FE40211120FEF7CCF9502170
:102870001520FEF7C8F90A2000F018FE1E211220CC
:10288000FEF7C1F90A2000F011FE4FF4B1511020FB
:10289000FEF7B9F942F639211320FEF7B4F90A2000
:1028A00000F004FE4FF480710120FEF7ACF94FF404
:1028B00040710220FEF7A7F941F230010320FEF734
:1028C000A2F940F202210820FEF79DF908210A2012
:1028D000FEF799F900213020FEF795F940F2024108
:1028E0003120FEF790F94FF48371322002E00000AE
:1028F0001C000020FEF787F940F203513320FEF759
:1029000082F94FF482713420FEF77DF940F20131F3
:102910003520FEF778F940F207713620FEF773F99B
:1029200040F205313720FEF76EF94FF4027138207E
:1029300000E040E0FEF767F940F60B713920FEF742
:1029400062F902214120FEF75EF94FF41C5160202C
:10295000FEF759F901216120FEF755F94FF4047192
:102960009020FEF750F94FF485719220FEF74BF955
:1029700004219320FEF747F94FF48071A020FEF761
:1029800042F901210720FEF73EF921210720FEF739
:102990003AF923210720FEF736F933210720FEF705
:1029A00032F940F233110720FEF72DF90021A02063
:1029B000FEF729F9B4E0FA48008844F2355188421C
:1029C000F8D130211520FEF71EF910219A20FEF7CC
:1029D0001AF920211120FEF716F943F228411020A0
:1029E000FEF711F902211220FEF70DF941F238012C
:1029F0001320FEF708F9282000F058FD12210846A0
:102A0000FEF701F9282000F051FD43F2204110208B
:102A1000FEF7F9F843F238011320FEF7F4F84620E8
:102A200000F044FD00213020FEF7EDF840F20241B5
:102A30003120FEF7E8F840F207313220FEF7E3F8E4
:102A40004FF441713320FEF7DEF804213420FEF705
:102A5000DAF840F201413520FEF7D5F840F207716F
:102A60003620FEF7D0F840F205313720FEF7CBF8DC
:102A70004FF4C2613820FEF7C6F84FF4C261392026
:102A8000FEF7C1F84FF480710120FEF7BCF84FF457
:102A900040710220FEF7B7F841F230010320FEF743
:102AA000B2F840F608010820FEF7ADF808210A2028
:102AB000FEF7A9F84FF41C516020FEF7A4F801219D
:102AC0006120FEF7A0F84FF49F719020FEF79BF86D
:102AD0004FF480719220FEF796F84FF480719320A6
:102AE000FEF791F84FF44051A020FEF78CF810212A
:102AF000A320FEF788F801210720FEF784F82121A2
:102B00000720FEF780F823210720FEF77CF8332109
:102B10000720FEF778F840F233110720FEF773F82C
:102B20000020FEF766F901209E4908604FF6FF700D
:102B3000FEF7D1FA08BD2DE9F05F05460E461746AF
:102B40009846DDF828A04FF0000B0020FEF751F961
:102B5000781B401C1FFA80FB34461EE021462846A5
:102B600002F068FCFEF76BF84FF0000911E04FF43B
:102B700080708D490861400048618C48C0F800A011
:102B80008020486108618000086109F101001FFA96
:102B900080F9D945EBDB601C84B24445DEDD0020C2
:102BA000FEF727F9BDE8F09F2DE9FF4F85B081467C
:102BB0008A460020049003900798A0EB0905089826
:102BC000A0EB0A06CDF80890CDF804A0002D01DD99
:102BD000012705E00DB9002702E04FF0FF376D42F5
:102BE000002E02DD4FF0010806E016B94FF0000894
:102BF00002E04FF0FF387642B54201DD2C4600E09E
:102C000034464FF0000B21E0019A91B2029A90B243
:102C1000FEF747FA04982844049003983044039040
:102C20000498A04205DD0498001B049002983844E3
:102C300002900398A04205DD0398001B03900198C1
:102C4000404401900BF101001FFA80FB601C83459A
:102C5000DADD09B0BDE8F08F2DE9F04104460D46FC
:102C600016461F462B46324629462046FFF79CFF54
:102C70003B46224629462046FFF796FF3B46324612
:102C800039462046FFF790FF3B46324629463046FC
:102C9000FFF78AFFBDE8F0812DE9F04706460F46B1
:102CA0009046002445460320A0EB480948E03A1B23
:102CB00091B2721B90B2FEF7F4F93A1B91B27219FD
:102CC00090B2FEF7EEF97A1991B2321B90B2FEF78C
:102CD000E8F93A1B91B2721B90B2FEF7E2F97A1B47
:102CE00091B2321B90B2FEF7DCF93A1991B2721927
:102CF00090B2FEF7D6F97A1B91B2321990B2FEF774
:102D0000D0F97A1991B2321990B2FEF7CAF93A198C
:102D100091B2721B90B2FEF7C4F9641CB9F1000FB6
:102D200003DAA000801D814404E0601B80000A30AB
:102D300081446D1E7A1991B2321990B2FEF7B1F941
:102D4000AC42B4DDBDE8F0872DE9F84F074689466F
:102D500016461D46BB46164800880090E82F02DC48
:102D6000B9F59C7F01DDBDE8F88FA6F12000C6B261
:102D70000A98002848D1002443E00C2D07D106EB27
:102D800046000C4901EB800010F804A004E00A485A
:102D900000EB061010F804A04FF0000825E000003A
:102DA0001C000020A8012242001001400C0C014030
:102DB000180000200E600008826400080AF001007C
:102DC00018B17F490098088003E07E4800887C495C
:102DD000088049463846FEF764F94FEA6A0A781CCB
:102DE00087B208F1010000F0FF0805EBD571B8EBE0
:102DF000610FE3DB5F4609F101001FFA80F9601CF7
:102E0000C4B2AC42B9DB2DE0002429E00C2D07D17F
:102E100006EB46006C4901EB800010F804A004E0CA
:102E20006A4800EB061010F804A04FF0000810E00C
:102E30000AF0010038B109EB040291B207EB080275
:102E400090B2FEF72EF94FEA6A0A08F1010000F08D
:102E5000FF0805EBD571B8EB610FE9DB601CC4B26C
:102E6000AC42D3DB56490098088000BF7BE710B521
:102E70000246012000E050430B1EA1F10104E1B223
:102E8000F9D110BD2DE9FF4F81B0074691461E468E
:102E90000E9D4FF0000A002439E0301B401EC1B2E5
:102EA0000A20FFF7E4FFB9FBF0F00A21B0FBF1F2D2
:102EB00001FB1208BAF1000F16D1701EA04213DDFB
:102EC000B8F1000F0ED10020AB4605EBDB714910C5
:102ED00001FB0471009088B22B4620220299FFF773
:102EE00033FF12E04FF0010A0020AB4605EBDB7127
:102EF000491001FB0471009088B208F13001CAB298
:102F00002B460299FFF720FF00BF601CC4B2B442F9
:102F1000C3DB05B0BDE8F08F2DE9FF4F81B0074658
:102F200090461D46DDE90E6A00241EE0281B401E67
:102F3000C1B20A20FFF79BFFB8FBF0F00A21B0FBFB
:102F4000F1F201FB1209B34606EBDB71491001FBFC
:102F5000047188B209F13001CAB23346CDF800A03D
:102F60000299FFF7F1FE601CC4B2AC42DEDB05B093
:102F7000BDE8F08FF8B505460E4614461BE0E82D77
:102F800003DD002506F1100086B2B6F59C7F06DD54
:102F90000020054606464FF6FF70FEF79CF800201D
:102FA00000902278102331462846FFF7CDFE05F128
:102FB000080085B2641C20780028E0D1F8BD00002C
:102FC000180000201A0000200E600008826400082B
:102FD00008B50121102000F0F5FE1020ADF800002A
:102FE0008DF8030003208DF802006946954800F033
:102FF0002DFC2020ADF8000048208DF80300694624
:10300000904800F023FC10218E4800F0CCFC08BD55
:1030100070B501208C49086000F064FA00208B49EB
:10302000C1F89001002400BF874800680028FBD148
:10303000002513E0012084497C310860640000F021
:1030400051FA00208149C1F890017F48006800B121
:10305000641C012000F046FA681CC5B2182DE9DB9B
:10306000012079497C31086084F4000400F03AFAC8
:1030700000207649C1F89001204670BD10B5FFF7D9
:10308000C7FF044602F0FCFD7149086010BD2DE940
:10309000F041FFF7BDFF6F4908600846006802F085
:1030A000EFFD04466A480168204602F0FDFE7DD22D
:1030B0006848006802F0E4FD6749086064480168F8
:1030C0006548006802F02CFF634908606349624864
:1030D000006802F0E9FD0DD85F48006802F020FCAE
:1030E00006465F4A5F4B02F06FFA044602F03AFA76
:1030F0005949086059495848006802F0D5FE13D272
:1031000059495548006802F0CFFD0DD25248006879
:1031100002F006FC0646524A544B02F055FA0446A9
:1031200002F020FA4C4908604F494B48006802F011
:10313000BBFE13D84E494848006802F0B5FD0DD8D3
:103140004548006802F0ECFB0646454A494B02F050
:103150003BFA044602F006FA3F49086044493E48FB
:10316000006802F0A1FE13D243493B48006802F018
:103170009BFD0DD23848006802F0D2FB0646384A63
:103180003E4B02F021FA044602F0ECF932490860A5
:1031900039493148006802F087FE0FD82E48006890
:1031A00002F0BEFB06462E4A354B00E006E002F078
:1031B0000BFA044602F0D6F927490860BDE8F08111
:1031C0002DE9F0418CB0054600260BE0FFF75FFFCC
:1031D0002148006801A941F82600052000F066F9A1
:1031E000701CC6B2AE42F1DB00271EE0002417E0DF
:1031F00001AB621C53F8221001AA52F8240002F01D
:1032000053FE0BD201A850F8248001A9601C51F88C
:10321000200041F82400601C41F82080601CC4B2EA
:10322000681EA042E4DC781CC7B2681EB842DDDC30
:10323000691E01EBD170401001AA52F820000CB0B9
:10324000BDE8F0810010014014012242000022423A
:103250002400002020000020280000200050C34748
:10326000CDCCCCCCCCF49840007C9248CC409A4059
:1032700000BADB48CC74994000E62A49CC909940CA
:10328000CC389A4008B50121042000F09BFD4FF492
:103290002040ADF8000048208DF8030069467048D2
:1032A00000F0D4FA08BD10B501216E4800F09FFB74
:1032B0006D480078F8B16D48006818B16B48083067
:1032C0000068C0B90A2000F0F1F8002066490870D3
:1032D0006648006828B90121654800F088FB022093
:1032E00010BD62480830006880B90121604800F0D4
:1032F0007EFB0120F4E75D480068012806D15B48A9
:1033000008300068012801D1574908700121584848
:1033100000F06DFB0020E3E708B50121042000F078
:1033200051FD0F20ADF8000048208DF803006946DC
:103330004B4800F08BFAF020ADF8000010208DF81B
:10334000030003208DF802006946454800F07EFA2C
:10335000F021434800F029FB08BD08B501210420F5
:1033600000F030FDF020ADF8000048208DF803009B
:1033700069463B4800F06AFA0F20ADF800001020C3
:103380008DF8030003208DF802006946344800F0F0
:103390005DFA0F21324800F008FB08BD70B500242B
:1033A0000025FFF7B9FF2E4800F0ECFA044604F0C0
:1033B0000F0430480078E8B10E2C05D00D2C03D056
:1033C0000B2C01D0072C15D10A2000F06FF800203B
:1033D000284908700E2C01D1012511E00D2C01D1D6
:1033E00002250DE00B2C01D1032509E0072C07D1A4
:1033F000042505E000250F2C02D101201D4908708D
:10340000FFF7ABFF164800F0BDFA044604F0F004E5
:10341000E02C06D12DB1681E012101EB8000C5B260
:103420001BE0D02C06D12DB1681E022101EB8000DB
:10343000C5B212E0B02C06D12DB1681E032101EBFC
:103440008000C5B209E0702C06D12DB1681E0421A0
:1034500001EB8000C5B200E00025284670BD0000E9
:1034600000080140000430002D00002034012142FA
:10347000000230002E00002010B504466FF004005A
:1034800000F065F9E11704EB5171C1F3C701234A5C
:1034900011701046007800EB4001C1EBC0104FF6F0
:1034A000FF7101EAC0001E49088010BD01461C4A98
:1034B00012884A434FF0E0235A6100229A610122A8
:1034C0001A6100BF4FF0E022106900F001021AB14A
:1034D00000F48032002AF5D000224FF0E0231A6178
:1034E0009A61704701460D4A12784A434FF0E02333
:1034F0005A6100229A6101221A6100BF4FF0E02256
:10350000106900F001021AB100F48032002AF5D0EF
:1035100000224FF0E0231A619A61704730000020CA
:103520003200002010B54FF4A06000F0C1F810BDCB
:10353000014600BF704700BF494A128802F04002AE
:10354000002AF9D0C2B2464B1B1D1A80704710B535
:1035500086B00446012144F2050000F033FC4FF42C
:103560000070ADF8140003208DF8160018208DF8B7
:10357000170005A93B4800F069F94FF48060ADF8E9
:10358000140004208DF8170005A9364800F05EF9F4
:1035900025208DF8000003208DF801008DF8020031
:1035A00001208DF80300684600F087F801940020A0
:1035B000ADF80800ADF80A00ADF80C00ADF8100049
:1035C0000C20ADF80E0001A9254800F0A2FC012254
:1035D00040F22551224800F034FD0121204800F03E
:1035E00024FD06B010BD10B540F225511C4800F076
:1035F0000DFE10B31A4800F089FDC4B21A480078D5
:1036000000F08000C8B91848007800F0400060B1B0
:103610000A2C03D000201449087020E012480078DA
:1036200040F080001049087019E00D2C06D10E48BA
:10363000007840F040000C49087010E00A4800781B
:1036400000F03F0009490C5407480078401C064927
:103650000870084600783F2801DD0020087010BD82
:1036600000380140000801403800002050000020D0
:103670000948804709480047FEE7FEE7FEE7FEE706
:10368000FEE7FEE7FEE7FEE7FEE7FEE70448054942
:10369000054A064B70470000870A0008ED00000845
:1036A000F0000020F0060020F0020020F0020020D0
:1036B00031490143314A1160704770B50021002340
:1036C0000F22C47804B32D4C246804F4E064C4F5DC
:1036D000E064210AC1F10403CA40447804FA03F10A
:1036E0008478144021430901254C0678A1550478BB
:1036F00004F01F050124AC4005786D11AD0005F103
:10370000E025C5F8004109E0047804F01F05012414
:10371000AC401C4D0678761145F8264070BD1A4A1B
:103720000A400243154B1B1F1A60704739B1134AF8
:10373000121D12680243114B1B1D1A6006E00F4A4E
:10374000121D126882430D4B1B1D1A60704704281E
:1037500008D14FF0E021096941F004014FF0E02267
:10376000116107E04FF0E021096921F004014FF0F9
:10377000E0221161704700000000FA050CED00E046
:1037800000E400E080E100E080FFFF1F10B5044688
:10379000CC48844208D10121042000F02DFB0021F7
:1037A000042000F029FB46E0C748844208D10121EB
:1037B000082000F021FB0021082000F01DFB3AE06A
:1037C000C248844208D10121102000F015FB0021DD
:1037D000102000F011FB2EE0BD48844208D10121E9
:1037E000202000F009FB0021202000F005FB22E052
:1037F000B848844208D10121402000F0FDFA0021A0
:10380000402000F0F9FA16E0B348844208D10121C3
:10381000802000F0F1FA0021802000F0EDFA0AE0AB
:10382000AE48844207D10121801500F0E5FA00215D
:10383000A01500F0E1FA10BD10B50121084600F016
:10384000DBFA0021012000F0D7FA10BD2DE9F0418C
:10385000024600250026002000230024002791F8BE
:1038600003C00CF00F0591F803C00CF0100CBCF174
:10387000000F03D091F802C04CEA050591F800C092
:10388000BCF1000F31D0146800202BE04FF0010C88
:103890000CFA00F3B1F800C00CEA03069E4220D1F6
:1038A00083004FF00F0C0CFA03F7BC4305FA03FC3E
:1038B0004CEA040491F803C0BCF1280F06D14FF084
:1038C000010C0CFA00FCC2F814C00AE091F803C025
:1038D000BCF1480F05D14FF0010C0CFA00FCC2F806
:1038E00010C0401C0828D1D31460B1F800C0BCF14E
:1038F000FF0F34DD546800202EE000F1080C4FF07B
:10390000010808FA0CF3B1F800C00CEA03069E4265
:1039100021D183004FF00F0C0CFA03F7BC4305FADA
:1039200003FC4CEA040491F803C0BCF1280F05D154
:1039300000F1080C08FA0CF8C2F8148091F803C0E2
:10394000BCF1480F07D100F1080C4FF0010808FA4C
:103950000CF8C2F81080401C0828CED35460BDE893
:10396000F0814FF6FF710180022181700421C17046
:1039700070470246002093680B400BB1012000E025
:10398000002070470146886880B2704702460020D8
:10399000D3680B400BB1012000E0002070470146C6
:1039A000C86880B2704701617047416170470AB1D1
:1039B000016100E041617047C16070474FF480329F
:1039C0000A4382618161826182698269704702462D
:1039D0000020434B18684FF68073184040EA0210ED
:1039E00008433F4B186070473E49C8617047F0B5C7
:1039F0000A46002300240021002500F00046B6F10D
:103A0000004F02D1364EF16901E0354E7168C0F3C6
:103A1000034583B200F44016B6F5401F08D121F0EB
:103A200070612F4E766826F070662D4F7E6012E032
:103A300000F48016B6F5801F06D1032606FA05F4B9
:103A4000A14341F0706106E0460D360103FA06F627
:103A5000B14341F0706122B1460D360103FA06F61A
:103A6000314300F00046B6F1004F02D11C4EF16127
:103A700001E01B4E7160F0BD30B500228B071C0FBA
:103A80000F2303FA04F2164B08338C1053F824303A
:103A90009343134C08348D1044F8253023468C1082
:103AA00053F824308C07240F00FA04F423430C4C01
:103AB00008348D1044F8253030BD0A49DC310860E7
:103AC0007047000000080140000C01400010014058
:103AD0000014014000180140001C0140002001407A
:103AE0000000014000002042DF48006840F0010073
:103AF000DD49086008464068DC490840DA4948600A
:103B000008460068DA490840D74908600846006856
:103B100020F4802008600846406820F4FE004860D9
:103B20004FF41F0088607047CF49096821F4803145
:103B3000CD4A11601146096821F480211160B0F569
:103B4000803F03D0B0F5802F0ED106E0C64909684A
:103B500041F48031C44A116007E0C349096841F467
:103B6000A021C14A116000E000BF00BF704710B53E
:103B700001460022002300204A11012A02D1BA4C3A
:103B8000236806E0022A02D1B74C236A01E0B64C52
:103B9000636A01F01F02012494401C400CB1012013
:103BA00000E0002010BD38B5002000900024002562
:103BB00000BF3120FFF7DBFF05460098401C009056
:103BC0000098B0F5A06F01D0002DF2D03120FFF7A2
:103BD000CEFF08B1012400E00024204638BD014694
:103BE0000020A14A106820F0F80040EAC1001060EF
:103BF0007047A04908607047024600209A4B5868F9
:103C000020F47C1042EA01031843974B5860704738
:103C100098490866704701460020934A506820F092
:103C200003000843506070478F48406800F00C0064
:103C30007047014600208C4A506820F0F00008438D
:103C40005060704701460020874A506820F4E060C9
:103C500008435060704701460020834A506820F4B2
:103C6000605040EAC1005060704729B17E4A527AE4
:103C700002437D4B5A7204E07B4A527A82437A4B6C
:103C80005A7270477B49D83108607047014600205E
:103C9000754A506820F44040084350607047002146
:103CA000714A20321170704A82F82010012802D027
:103CB00004280AD104E001216B4A2032117005E08A
:103CC0000521694A2032117000E000BF00BF704733
:103CD0006949086070476449096A0143624A116290
:103CE0007047654944390860704730B500210022AB
:103CF000002400235C4D6D6805F00C0121B10429FE
:103D000005D0082923D105E05C4D056022E05B4D1C
:103D100005601FE0544D6D6805F47012524D6D68DA
:103D200005F48034022505EB92421CB9544D5543ED
:103D300005600BE04C4D6D6805F400351DB1504D2C
:103D40005543056002E04D4D5543056002E04B4D83
:103D5000056000BF00BF444D6D6805F0F001090922
:103D6000484D6B5C0568DD4045603F4D6D6805F46E
:103D7000E061090A434D6B5C4568DD4085603A4D62
:103D80006D6805F46051C90A3E4D6B5C4568DD40C5
:103D9000C560354D6D6805F44041890B3A4D6B5C4B
:103DA000C568B5FBF3F5056130BD29B12E4A5269EE
:103DB00002432D4B5A6104E02B4A526982432A4B3D
:103DC0005A61704729B1284A92690243264B9A6189
:103DD00004E0254A92698243234B9A61704729B1D6
:103DE000214AD2690243204BDA6104E01E4AD269BB
:103DF00082431D4BDA61704729B11B4AD2680243E6
:103E0000194BDA6004E0184AD2688243164BDA6034
:103E1000704729B1144A12690243134B1A6104E036
:103E2000114A12698243104B1A6170471249403996
:103E3000086070470F49C86470470B49C8717047E4
:103E40000948406A40F0807007494862704701465F
:103E50000020054A92680A400AB1012000E00020D3
:103E60007047014988727047001002400000FFF857
:103E7000FFFFF6FE000042428004424200127A0038
:103E800000093D00390000204900002010B504461B
:103E9000FB48844209D101218803FFF7ADFF0021CF
:103EA0004FF48040FFF7A8FF32E0F648844209D182
:103EB00001214804FFF7ADFF00214FF40030FFF768
:103EC000A8FF25E0F048844209D101218804FFF7CA
:103ED000A0FF00214FF48020FFF79BFF18E0EB4884
:103EE000844209D10121C804FFF793FF00214FF458
:103EF0000020FFF78EFF0BE0E548844208D1012146
:103F00000805FFF786FF00214FF48010FFF781FFBF
:103F100010BD2DE9F04786B005460E460024A246A6
:103F200000BFA1460027B08900B100BF2F462C8AF0
:103F30004CF6FF700440F08804432C82AC894EF6A6
:103F4000F3100440B0883189084371890843044361
:103F5000AC81AC8A4FF6FF400440B0890443AC8288
:103F600001A8FFF7C2FEC648874202D1DDF810A0C3
:103F700001E0DDF80CA0A88900F4004040B10AEB94
:103F8000CA0000EB0A1031684900B0FBF1F807E005
:103F90000AEBCA0000EB0A1031688900B0FBF1F8A7
:103FA0006420B8FBF0F004012009642101FB1089B2
:103FB000A88900F4004040B1322000EBC900B0FBFA
:103FC000F1F000F00700044308E0322000EB091094
:103FD0006421B0FBF1F000F00F0004432C8106B027
:103FE000BDE8F0874FF41651016000218180C18047
:103FF00001810C21418100218181704710B5024669
:104000000020108A4FF2FF0318400B884C8823438E
:104010008C882343CC8823431843108210BD002191
:10402000018041808180C180704721B1828942F442
:104030000052828104E082894DF6FF731A4082812A
:104040007047F0B50346002400260025002040F606
:104050006A17B94200D100BF1846C1F3421401F0FB
:104060001F06012707FA06F5012C01D10C3004E0E8
:10407000022C01D1103000E014301AB107682F4330
:10408000076002E00768AF430760F0BD1AB1838A9A
:104090000B43838202E0838A8B4383827047028AC8
:1040A0004FF6F0731A400282028A0A430282704776
:1040B00082894FF2FF731A40828182890A4382818A
:1040C000704721B1828942F00202828104E0828934
:1040D0004FF6FD731A4082817047028A4FF6DF73F4
:1040E0001A400282028A0A430282704721B1028A80
:1040F00042F48042028204E0028A4BF6FF731A40C7
:1041000002827047C1F308028280704701468888A6
:10411000C0F308007047818941F001018181704737
:10412000028BD2B20283028B42EA012202837047E1
:10413000028B02F47F420283028B0A4302837047A0
:1041400021B1828A42F02002828204E0828A4FF604
:10415000DF731A408282704721B1828A42F01002D6
:10416000828204E0828A4FF6EF731A40828270479F
:1041700021B1828A42F00802828204E0828A4FF6EC
:10418000F7731A408282704721B1828942F400425B
:10419000828103E08289C2F30E028281704721B1DD
:1041A000828A42F40062828204E0828A4FF2FF73C4
:1041B0001A4082827047828A4FF6FB731A408282CD
:1041C000828A0A438282704721B1828A42F00202C7
:1041D000828204E0828A4FF6FD731A408282704721
:1041E00002460020B1F5007F00D100BF13880B40CC
:1041F0000BB1012000E00020704701F40072B2F51D
:10420000007F00D100BFCA430280704770B50246EC
:10421000002400230025002040F66A16B14200D198
:1042200000BFC1F3421501F01F03012606FA03F394
:10423000012D02D19689334006E0022D02D1168A63
:10424000334001E0968A33400C12012606FA04F44A
:104250001688344013B10CB1012000E0002070BD7D
:1042600010B50022002340F66A14A14200D100BF1D
:104270000A1201249440A3B2DC43048010BD000064
:10428000003801400044004000480040004C00401D
:1042900000500040704700000FB4044910B503AA55
:1042A000029800F073FB10BC5DF814FB3400002092
:1042B0002DE9F0410646002410687529314616A5FF
:1042C00010D0AFF30080002802DA404213A507E0C7
:1042D00031688A0701D512A502E0490704D511A566
:1042E000012401E0AFF3008000210A2206F1240737
:1042F00009E0B0FBF2FCB0FBF2F302FB1C00303033
:1043000078541846491C0028F3D123462A463046E3
:10431000BDE8F04100F0D4B8000000002D0000001E
:104320002B0000002000000070B504460D46214619
:104330001068AFF300802188090502D50F4A7A443E
:1043400002E00E4A7A440E32002104F1240305E013
:1043500000F00F060009965D5E54491C0028F7D155
:1043600020780023000704D5702D02D009B1022364
:1043700011322046BDE8704000F0A2B8302700009E
:104380002DE9F05F894604464FF0000ADFF824B1BA
:10439000FB44C0F820A02046E168884700287DD073
:1043A000252806D0D4E901219047206A401C2062CC
:1043B000F1E700255F462046E16888472028064649
:1043C00007DB312E05D2B81910F8200C08B10543CF
:1043D000F1E7A80701D525F00405C4F81CA00027C3
:1043E000C4F818A02A2E09D0304601F09DF838B341
:1043F00004EB8708303EC8F8186019E059F8041B30
:10440000204604EB87029161E1688847012F064648
:1044100018D1E069002820DA25F020051DE0D8F841
:10442000180000EB800006EB40003038C8F8180098
:104430002046E1688847064601F076F80028EED16C
:10444000012F0AD02E2E08D12046E16888477F1C14
:104450000646022F45F02005C4DBA069002803DAD8
:10446000404245F00105A061E80701D025F01005A4
:10447000A6B1A6F14100192802D8203645F40065FE
:104480004A463146204625604D46FBF769FE60B13D
:10449000012807D0ED1D25F0070000E007E000F13E
:1044A000080978E705F1040975E730467AE7206ADC
:1044B000BDE8F09F062700007047704770477047BF
:1044C0002DE9F0470D4699469246044600F124082E
:1044D0000168880604D5E06921F01001216000E040
:1044E0000120A84201DD471B00E00027A1697A19DD
:1044F00002EB0900081AA0612078C00602D4204609
:10450000AFF30080002608E0D4E901211AF8060084
:104510009047206A401C761C20624E45F4DB2078D0
:10452000C0060AD52046AFF3008006E0D4E9012199
:1045300030209047206A401C2062381EA7F10107F6
:10454000F4DC07E0D4E9012118F805009047206A5F
:10455000401C2062281EA5F10105F3DC2046AFF3C4
:1045600000802078000602D50220BDE8F0870120F7
:10457000FBE770472DE9FF4F0C461E464FF0FF3713
:104580008BB0D2E90001DDF860800A908A46C1F361
:104590000A5505B93D46002108464FF00000BAF122
:1045A000000F00F4400005DA00EB80004FF44001FA
:1045B00001EA50004FEA9059B9F1010F00DDB94608
:1045C0000A9850EA4A000ED044F61050A5F2FF3582
:1045D00045432F14B8F1000F1ED07542291E1EDD71
:1045E000C9F100021CE0B8F1010F4FF0000001D04A
:1045F000302103E0F24305E02154401CB042FBDBD4
:1046000030460022002121540B99C1F80880C1E9ED
:1046100000200FB0BDE8F08FBD1B6D1CDEE74A46E1
:1046200000DA694206A800F065FA06AB93E80700D5
:1046300003AB83E8070050460A9900F03FFB8DE882
:104640000700A0F500501F3800900398002D09DDE9
:1046500042F21F014A46084403A90390684600F04D
:104660009EFD08E0A0F500504A461F3803A90390BC
:10467000684600F0A8FD8DE807000004000C03D098
:104680004FF0FF30410800E01046B8F1000F03D0B2
:104690000022009215461EE0751E05D400F08CF92C
:1046A000303262556D1EF9D5B3460122084302D05F
:1046B00000227F1C04E02078302801D100227F1ED8
:1046C000002A099786D01DE0112D07DA00F074F951
:1046D000303262556D1C50EA0102F5D1084302D018
:1046E0000098C8B10EE00021681E05E0235C625C02
:1046F00063542254401E491C8142F7DBAB46A81B81
:10470000401E0990002004F80B000B98099AC0F88D
:104710000880C0E9002B7CE711264FF0000859E71C
:104720002DE9F04F88460446D21D22F0070191B0D2
:10473000D1E90001CDE90A0100F0E2FE02460B9842
:10474000C00F01D02D2007E02068810701D52B2064
:1047500002E0202101EAC000032A099001D0072AC3
:1047600005DB03464146204600F084F90BE1207842
:10477000800601D5E06900E00620B8F1650F8146AA
:1047800006D0B8F1660F18D0B8F1670F70D131E0DC
:104790000020B9F1110F009001DB112301E009F1B4
:1047A00001030AAA01A90CA8FFF7E4FEDDE90C70D9
:1047B000002609F10105834647E001204B460090A1
:1047C0004FF000470AAA01A90CA8FFF7D3FEDDE9C4
:1047D0000DB00C995D46002610B909F101000D18C5
:1047E000B9EB050003D4C0F1FF3609F10105A5EBD3
:1047F00009002BE0B9F1010F01DA4FF001090020A7
:10480000B9F1110F0090484601DD112300E0034685
:104810000AAA01A90CA8FFF7ADFEDDE90C704D4610
:1048200000268346207800070AD4AB4500DA5D46AF
:1048300001A8012D04DD411911F8011C302907D010
:104840004F4502DA17F1040F04DA012082460FE027
:104850006D1EEEE7002F02DCED1B3E4403E0781CEA
:10486000A84200DD7D1CB81B00F1010A4FF0004793
:104870002078000703D4AA4501DB4FF0FF3A00215E
:10488000B7F1004F0DF143088DF8431024D00220FA
:104890002B23002F01DA7F422D230A21021EA0F1D3
:1048A000010000DC5FB197FBF1FC97FBF1F201FB2B
:1048B0001C7C17460CF1300C08F801CDEEE7A8F18E
:1048C000010003702188090501D5452100E065211B
:1048D000A0F1010800F8011C09980FA9A1EB080735
:1048E000FF1D00B10120411901EBEA70A1693844B4
:1048F000081A401EA0612078C00602D42046AFF3FB
:104900000080099828B1D4E901219047206A401C11
:1049100020622078C00622D52046AFF300801EE03A
:10492000002E04DBB34502DD01A8805D00E03020ED
:10493000D4E901219047206A401C2062761CAAF12C
:1049400001005FEA000A0AD100F032F8C06801688D
:10495000405CD4E901219047206A401C2062281E57
:10496000A5F10105DCDC07E0D4E9012118F8010B11
:104970009047206A401C2062381EA7F10107F3DC33
:104980002046AFF30080032011B043E6074B70B51B
:104990000D467B4400F05BF80446284600F018F909
:1049A00010B14FF0FF3070BD204670BDA1EBFFFF8E
:1049B00000487047B000002030B5B0F10A024FEA5D
:1049C000900E71F100034EEA817EB0EB0E0061EBB8
:1049D00091014FEA101E4EEA017E10EB0E0041EBF2
:1049E00011114FEA102E4EEA016E10EB0E0041EB52
:1049F00011214FEA104E4EEA014E10EB0E0041EB32
:104A00001141401841F100014FEAD00040EA4170E5
:104A10004FEAD10110EB80054FEA810444EA90741B
:104A200044EB01046D1944EB0404521BA3414FF005
:104A3000000348BF0A3200D530BD401C41F10001DF
:104A400030BD000001694A1C02610878704700B55A
:104A50008FB0CDE901310021059105497944CDE9B7
:104A6000031011466846FFF78BFC0FB000BD000035
:104A7000E5FFFFFF2DE9F0411F46044603260168CC
:104A8000072A01F4006004DB08B116A505E016A5AD
:104A900003E008B115A500E015A521F01000206085
:104AA000A069C01EA0610FB1401EA0612046AFF3F7
:104AB00000804FB1D4E9012138469047206A401C5C
:104AC0002062C01C206206E0206AFAE7D4E90121D6
:104AD00015F8010B9047761EF8D22046AFF3008000
:104AE000BDE8F0814E414E006E616E00494E4600B9
:104AF000696E66002DE9F047814616468AB0334854
:104B000078440DC88DE80D0030487844801C03AC13
:104B10000DC884E80D0041F69B300844372190FB16
:104B2000F1F290FBF1F5A5F1800501FB12041B3CAD
:104B300002D56442012000E00020DFF890A080460A
:104B40000027FA44AAF1BE0A0DE0E00709D0324678
:104B5000684607EB47010AEB810100F034FB8DE862
:104B6000070064107F1C002CEFD1184F7F44AC3F2E
:104B700018E0E80714D007EB04100DF1180A90E8CC
:104B80000E008AE80E00C068F04201D19819089022
:104B9000324606A903A800F016FB03AB83E8070022
:104BA0006D10641C002DE4D132466946B8F1000F47
:104BB00003A802D000F0F3FA01E000F004FBC9E919
:104BC0000001C9F808200AB0BDE8F08724200000E1
:104BD000007B00F080007047004870479000002084
:104BE0007546FFF7F9FFAE4605006946534620F0CB
:104BF0000700854618B020B5FEF748FDBDE8204007
:104C00004FF000064FF000074FF000084FF0000B88
:104C100021F00701AC46ACE8C009ACE8C009ACE83B
:104C2000C009ACE8C0098D46704710B50446AFF323
:104C300000802046BDE81040FBF7B2BA4FF0013CBF
:104C400050F8042B51F8043B9A4221D1A2EB0C03FB
:104C5000934313EACC1317D150F8042B51F8043BBB
:104C60009A4215D1A2EB0C03934313EACC130BD158
:104C700050F8042B51F8043B9A4209D1A2EB0C03E3
:104C8000934313EACC13DBD04FF00000704700BF12
:104C9000D01A01BAB1FA81F101F0180122FA01F03B
:104CA000CB40C1F12001DBB2C0B2C01A2CFA01F333
:104CB000D11A914311EAC311E6D170475FEA400C63
:104CC00008BF91F0000F4FEA8C234FEAC12243EA5C
:104CD00051514FEA1C5018BF00F5F0404FEA300028
:104CE00018BF41F000415FEA6C5C00F02980BCF124
:104CF000FF3F08BF40F080407047130C06BF12040E
:104D00004FF0100C4FF0000C130E04BF12020CF108
:104D1000080C130F04BF12010CF1040C930F04BF15
:104D200092000CF1020CD30F04BF52000CF1010CE5
:104D300011464FF00002A0F11F00A0EB0C007047DD
:104D400011F0004F08BF704731F000413FF4D5AF7C
:104D50000B0C06BF09044FF0100C4FF0000C0B0EAB
:104D600004BF09020CF1080C0B0F04BF09010CF180
:104D7000040C8B0F04BF89000CF1020CCB0F04BF95
:104D800049000CF1010CCCF12003A0EB0C0022FA3D
:104D900003F302FA0CF241EA030100F1010070474B
:104DA00020F07F4C80EA030023F07F47ACEB070341
:104DB00003F57C5300F0004003F1FF032DE9804927
:104DC0004FEA154B09B44FEA144325EA0B4E24EA87
:104DD00003480FF2042606EB132749083E785FEAE2
:104DE000320203FB0667C7F5000707FB06F64FEA2A
:104DF00054374FEAD64606F1020607FB066CCCF1A3
:104E0000005C4FEA1C472CEA074C07FB06F40CFB3E
:104E100006F504EB15464FEA961634BF00204FF016
:104E200000404FEAD13706FB07FC4FEA1C4C0CFB55
:104E30000BF7D21B03FB0CF761EB07010CFB0EF722
:104E4000B0EB074072EB17420CFB08F734BFA2EB44
:104E50000742B2EB074261EB17414FEA0C444FEABD
:104E6000910706FB07FC4FEA1C4C0CFB0BF7B0EB61
:104E7000C74072EB573203FB0CF734BFA2EBC742BB
:104E8000B2EBC74261EB57310CFB0EF7B0EBC7003A
:104E900072EB57720CFB08F734BFA2EBC702B2EB00
:104EA000C70261EB5771039F4FEA816141EA92119A
:104EB00004EBCC044FEAD1374FEA826206FB07FCD1
:104EC00042EA90124FEA80604FEA1C4C0CFB0BF751
:104ED000D21B03FB0CF761EB07010CFB0EF7B0EBE9
:104EE000074072EB17420CFB08F734BFA2EB0742F6
:104EF000B2EB074261EB17414FEA8C554FEA91073D
:104F000004EB9C2406FB07FC4FEA1C4C0CFB0BF744
:104F1000B0EBC74072EB573203FB0CF734BFA2EB88
:104F2000C742B2EBC74261EB57310CFB0EF7B0EB57
:104F3000C70072EB57720CFB08F734BFA2EBC70235
:104F4000B2EBC70261EB577115EB4C254FEA81615B
:104F500041EA92114FEA82624FEAD13742EA901257
:104F600006FB07FC44F100044FEA80604FEA1C4C4A
:104F70000CFB0BF7D21B03FB0CF761EB07010CFBDF
:104F80000EF7B0EB074072EB17420CFB08F734BF8B
:104F9000A2EB0742B2EB074261EB174115EB1C1580
:104FA0004FEA813141EA92414FEA823242EA90422D
:104FB0004FEA80304FEA0C7644F1000448EA03439C
:104FC0004EEA0B484FF0000EB2EB080C71EB0307F2
:104FD00024BF624639464EEB0E0E4FF0000B001810
:104FE000524149414BEB0B0BB2EB080C71EB030741
:104FF0007BF1000B24BF624639464EEB0E0E4FF09C
:10500000000B0018524149414BEB0B0BB2EB080C63
:1050100071EB03077BF1000B24BF624639464EEB70
:105020000E0E51EA020718BF46F0010616EB0E7687
:1050300055F1000254F1000103D5BDE88901BDE836
:105040000088BDE88901BDE80048B619524141EB2E
:105050000101A3F10103704780807F7E7D7C7B7A14
:105060007978777676757473727171706F6E6E6D14
:105070006C6C6B6A6A6968686766666564646363BA
:1050800062616160605F5F5E5E5D5D5C5C5B5B5A40
:105090005A595958585757565655555554545353AD
:1050A00052525251515050504F4F4F4E4E4D4D4D08
:1050B0004C4C4C4B4B4B4A4A4A4949494848484753
:1050C0004747474646464545454444444443434391
:1050D0004342424242414141002B26D4770021D035
:1050E0001CB54FEA370703B44FF010004FF0100122
:1050F0004FF000000FBCBDE810400BF1010BBBF1FD
:10510000010F08BF5FEA170722BF12F1010211F178
:1051100001014FF0004143F1000300F0004043EA79
:1051200000007047F9D35708DAE746EA064613F15C
:10513000400F4FEA16461FDD13F1200FDFBF164365
:105140000A46002120335B42C8D0C3F1200746EA5B
:10515000064602FA07F74FEA164646EA0706C3F183
:10516000200722FA03F201FA07F721FA03F14FF0C0
:10517000000342EA0702B1E746EA020646EA0646AB
:105180004FEA164646EA0106BCBF46EA0646360C1A
:105190004FF000034FF000024FF000019EE72DE9B1
:1051A000C048934630B491E8380007C831EA400C53
:1051B00048BF34EA430C03D5FFF7F2FDFFF78CFF3D
:1051C000F0BCBDE800882DE9C048934630B491E8B2
:1051D000380007C810F0804F08BF13F0804F03D18C
:1051E00000F005F8FFF778FFF0BCBDE8008820F07C
:1051F0007F4780EA030023F07F4C07EB0C03A3F505
:105200007C5300F00040A3F1FE0392F0000F00F089
:10521000B38095F0000F00F077802DE901494FEA47
:1052200011404FEA144621EA004800FB06FC24EA3C
:10523000064708FB06F607FB08F800FB07F718EB24
:1052400006484CEB164C4FEA124B18EB07484FEA56
:1052500015464CEB174022EA0B4E0BFB06FC25EAE9
:1052600006470EFB06F607FB0EFE0BFB07F71EEBD1
:10527000064E4CEB164C4FF000061EEB074E4CEB67
:10528000174B18EB0B0840F1000018EB0E0B58EB16
:10529000000840F100008F1A4FF000013CBFC943E5
:1052A000661B14BFB5EB040C00213CBFC943F61BC1
:1052B0004FEA17444EEA8E0E27EA04454FEA1C4790
:1052C00004FB07622CEA074C05FB07F70CFB05F60D
:1052D00004FB0CFC16EB074642EB174216EB0C46A0
:1052E00042EB1C421BEB060658EB0202414146EA28
:1052F0009E0601D5BDE80189B619524141EB010175
:10530000A3F10103BDE801894FEA14454FEA1147B3
:1053100024EA054621EA074C05FB07F406FB07F7DC
:105320000CFB06F105FB0CFC11EB074144EB1744A9
:105330004FEA124711EB0C4144EB1C4422EA074CA4
:1053400005FB07F206FB07F70CFB06F605FB0CFC5A
:1053500016EB074642EB174216EB0C4642EB1C4598
:105360006A1854F1000148BF7047B619524141EB29
:105370000101A3F10103704795F0000F37D04FEA08
:1053800011424FEA144721EA024624EA074C02FB85
:1053900007F106FB07F70CFB06F402FB0CFC14EB11
:1053A000074441EB17414FEA154714EB0C4441EB1E
:1053B0001C4125EA074C02FB07F506FB07F70CFB2F
:1053C00006F602FB0CFC16EB074645EB174516EB01
:1053D0000C4645EB1C42121951F1000148BF7047C1
:1053E000B619524141EB0101A3F1010370474FEAA5
:1053F00014454FEA114724EA054621EA074C05FB0C
:1054000007F106FB07F70CFB06F24FF0000605FB61
:105410000CFC12EB074241EB174112EB0C4251EB33
:105420001C4148BF7047921841EB0101A3F10103F1
:105430007047000030B504460D462E48008848F6F7
:105440008911884208D121464E20FBF7DCFB294612
:105450004F20FBF7D8FB4CE02648008849F2413149
:1054600088423ED12A20FBF78FFB4FF480702249FF
:1054700008614000486120122049086080201E49D0
:10548000486108618000086140100861400048617F
:10549000E0B21A490860802017494861086180001D
:1054A00008612B20FBF770FB4FF4807012490861F4
:1054B0004000486128121149086080200E49486167
:1054C0000861800008614010086140004861E8B24E
:1054D0000A49086080200849486108618000086125
:1054E00007E021462020FBF78EFB29462120FBF711
:1054F0008AFB30BD1C000020001001400C0C014054
:10550000490050EAC12018BF04204A0D18BF40F0DE
:10551000010040F2FF72B2EB515F08BF40F00200A1
:10552000012808BF0520704730380A2801D2012021
:10553000704700207047000010B500290AD0087895
:10554000002807D005487844FFF778FB002801D0F1
:10555000002010BD0248784410BD00001A1600005B
:105560001216000021F00042A2F16052B2F5801F35
:1055700001F0004328BFD2F17F6C0BD95FEA001C19
:1055800043EAC20242EB507018BF704728BF20F0B8
:1055900001007047B2F5801FBCBF184670474FEA44
:1055A000410C1CF5001F02D2084600F078BC70B513
:1055B00000F062F900000089FFF7F6BF4FF00040ED
:1055C000A0F58000704700002DE9C04130B4DFF83D
:1055D000A0C23CEA111418BF3CEA131400F0EC809E
:1055E00081EA03051CEA111444EAD57418BF1CEAC9
:1055F000131500F0C780A4EB05044FF0004545EA01
:10560000C12145EAC32341EA505143EA525304F110
:105610007F74994204F500344FEAC0204FEAC22259
:1056200008BF904200F09C804FEA13650FF24016CD
:10563000765D4FEA134506FB05F7C7F1807706FB59
:1056400007F74FEAD737A7FB03687642C8F58038DB
:10565000A7FB06CE38BFA8F1010807FB08E64FF00C
:10566000000EA6FB028CE6FB03CEDCF1000CCEF1B3
:10567000004E38BFAEF1010EA6FB0C584FF00007EC
:105680004FF00005E6FB0E87A1FB08C6A0FB07CE86
:1056900016EB0E0645F10005E1FB076515F1E04E3E
:1056A0007EBFA4F580345FEA46066D4116F180079F
:1056B00045F100054FEA17274FEA066647EA0567F6
:1056C000A6F1DE46B6F1805F4FEA15251FD93846B0
:1056D00024F0010C05EBC471BCF1FE6F01EB0C1161
:1056E00002D8F0BCBDE8008124425CBF01F5801EF9
:1056F0009EEAC47F02D4F0BCBDE80081244238D4C5
:10570000F0BCA1F1C041BDE8004100F003B94FEA8F
:10571000D22242EA43524FEAD323A7FB02864FEA42
:10572000D02040EA415007FB03661EEA0E0F4FEA05
:10573000D12105FB026658BFA6EB0056B6EB00561A
:105740004FEA520E4EEAC37E18EB0E0E56EB530E86
:10575000BDD518EB02085E417F1C55F10005B6E788
:105760004FF480154FF000074FF000064FF000088F
:10577000ADE7F0BC4FF0000001F1C04101F0004185
:10578000BDE8008111EA0C1F0CEA131500D00CE0F3
:1057900013EA0C1F00F025804FF00000F0BC81EAF6
:1057A000030101F00041BDE80081F0BCBDE800410B
:1057B00081EA030100F0AEB8F0BCBDE8004170B56D
:1057C00000F05AF8097EFC3E00F007B881EA0301B8
:1057D0004FF0000001F00041704781EA030100F042
:1057E00099B8F0BCBDE800414FF000002149704776
:1057F000FFFDFBF9F7F5F4F2F0EEEDEBE9E8E6E496
:10580000E3E1E0DEDDDBDAD8D7D5D4D3D1D0CFCD1C
:10581000CCCBCAC8C7C6C5C4C2C1C0BFBEBDBCBB55
:10582000BAB9B8B7B6B5B4B3B2B1B0AFAEADACAB50
:10583000AAA9A8A8A7A6A5A4A3A3A2A1A09F9F9E2A
:105840009D9C9C9B9A9999989797969595949393DC
:10585000929191908F8F8E8E8D8C8C8B8B8A898973
:1058600088888787868585848483838282818180F6
:105870000000FF070000F87F0EF1020E2EF0030E6D
:105880005EF8046B364205D4012A43EB030515F597
:10589000001F12D8012841EB010C1CF5001F0CD889
:1058A0000ED14FEAD17C15F5001F0CEB4C0C0CF11E
:1058B000020C08BF4CEBD37C04E04FF0080C01E075
:1058C0004FEAD37C0CEB4C0526FA05F606F00706EA
:1058D000B6F1040C06D20EEB860CBDE870404CF01D
:1058E000010C6047DFE80CF0090B02024FF00041A9
:1058F0004FF00000A1F5002170BD194610460128A7
:1059000051EB010418BFD4F5001484BF002001F04E
:10591000004170BD0808A0F500114FEA3101704741
:1059200043004FEAD30C4FEA3C0C43401FBF4007F3
:105930000CF1605113F0FE4F70471CF0006F03D163
:1059400000200CF0004170470CF0004343EA507017
:1059500010B540EACC0000F05CFA00BF00000092F5
:105960004FEA0001FFF7D6BF4FF000414FF00000B3
:10597000A1F500217047000090EA010F48BF81F0B7
:10598000004100F1D482421A3CBF801A89184FEAC4
:10599000D0524FF07F4C1CEA410FA2EBD15318BFFD
:1059A0009CEA026F00F03B804FF0004C4CEA002074
:1059B0004CEA012121FA03FC10EB0C0C1ED202F17F
:1059C000FF325FEA1C2040EBC25038BF70471CF02A
:1059D0007F0F4FEA400C18BFBCF17F4F38BF7047B4
:1059E000C3F12003994008BF20F00100BCF17F4FB4
:1059F00038BF7047A0F1C04000F051BA4FEA3C00F8
:105A0000000A40EBC25028BF1CF0FF0F4FEA400CC9
:105A1000E6D018BFBCF17F4F38BF7047EAE79CEA79
:105A2000026F05D010EA5C0F08BF00F0004070471D
:105A300010B500F0EEF900BF64FBBE3E401058BF49
:105A4000C0F14040491058BFC1F140418142EFF3DD
:105A5000008070474FF47F0C1CEAD0121EBF1CEA76
:105A6000D11392EA0C0F93EA0C0F00F0858090EAB4
:105A7000010F48BF42F4807240F4000C41F4000072
:105A80002CF07F4120F07F4000B58142A2EB030261
:105A90000FF2081CACEB504EC0F100009EF800E085
:105AA0004FEA4E0E00FB0EFC38BF49004FEA2C1C9B
:105AB00002F5FA020CFB0EF34FEACE1E4FEA112C50
:105AC0004FEAC1210EEB635E42EB22420EFB0CFC5F
:105AD0004FEA1C5300FB03114FEA112C4FEA01312E
